

Microchip Technology PIC LITE Macro Assembler V1.21 build 54009 
                                                                                               Sun Oct 20 05:27:04 2013

Microchip Technology Omniscient Code Generator (Lite mode) build 54009
     1                           	processor	16F1503
     2                           	opt	pw 120
     3                           	opt	lm
     4                           	psect	text0,local,class=CODE,merge=1,delta=2
     5                           	psect	cinit,global,class=CODE,merge=1,delta=2
     6                           	psect	cstackCOMMON,global,class=COMMON,space=1,delta=1
     7                           	psect	cstackBANK0,global,class=BANK0,space=1,delta=1
     8                           	psect	maintext,global,class=CODE,merge=1,split=1,delta=2
     9                           	psect	text1,local,class=CODE,merge=1,delta=2
    10                           	psect	text2,local,class=CODE,merge=1,delta=2
    11                           	psect	text3,local,class=CODE,merge=1,delta=2
    12                           	psect	text4,local,class=CODE,merge=1,delta=2
    13                           	psect	text5,local,class=CODE,merge=1,delta=2
    14                           	psect	text6,local,class=CODE,merge=1,delta=2
    15                           	psect	text7,local,class=CODE,merge=1,delta=2
    16                           	psect	text8,local,class=CODE,merge=1,delta=2
    17                           	dabs	1,0x7E,2
    18  0000                     	;# 
    19  0001                     	;# 
    20  0002                     	;# 
    21  0003                     	;# 
    22  0004                     	;# 
    23  0005                     	;# 
    24  0006                     	;# 
    25  0007                     	;# 
    26  0008                     	;# 
    27  0009                     	;# 
    28  000A                     	;# 
    29  000B                     	;# 
    30  000C                     	;# 
    31  000E                     	;# 
    32  0011                     	;# 
    33  0012                     	;# 
    34  0013                     	;# 
    35  0015                     	;# 
    36  0016                     	;# 
    37  0016                     	;# 
    38  0017                     	;# 
    39  0018                     	;# 
    40  0019                     	;# 
    41  001A                     	;# 
    42  001B                     	;# 
    43  001C                     	;# 
    44  008C                     	;# 
    45  008E                     	;# 
    46  0091                     	;# 
    47  0092                     	;# 
    48  0093                     	;# 
    49  0095                     	;# 
    50  0096                     	;# 
    51  0097                     	;# 
    52  0099                     	;# 
    53  009A                     	;# 
    54  009B                     	;# 
    55  009B                     	;# 
    56  009C                     	;# 
    57  009D                     	;# 
    58  009E                     	;# 
    59  009F                     	;# 
    60  010C                     	;# 
    61  010E                     	;# 
    62  0111                     	;# 
    63  0112                     	;# 
    64  0113                     	;# 
    65  0114                     	;# 
    66  0115                     	;# 
    67  0116                     	;# 
    68  0117                     	;# 
    69  0118                     	;# 
    70  0119                     	;# 
    71  011D                     	;# 
    72  018C                     	;# 
    73  018E                     	;# 
    74  0191                     	;# 
    75  0191                     	;# 
    76  0192                     	;# 
    77  0193                     	;# 
    78  0193                     	;# 
    79  0194                     	;# 
    80  0195                     	;# 
    81  0196                     	;# 
    82  0197                     	;# 
    83  020C                     	;# 
    84  0211                     	;# 
    85  0211                     	;# 
    86  0212                     	;# 
    87  0212                     	;# 
    88  0213                     	;# 
    89  0213                     	;# 
    90  0214                     	;# 
    91  0214                     	;# 
    92  0215                     	;# 
    93  0215                     	;# 
    94  0215                     	;# 
    95  0216                     	;# 
    96  0216                     	;# 
    97  0217                     	;# 
    98  0217                     	;# 
    99  0391                     	;# 
   100  0392                     	;# 
   101  0393                     	;# 
   102  0498                     	;# 
   103  0498                     	;# 
   104  0499                     	;# 
   105  049A                     	;# 
   106  049B                     	;# 
   107  049B                     	;# 
   108  049C                     	;# 
   109  049E                     	;# 
   110  049F                     	;# 
   111  0611                     	;# 
   112  0612                     	;# 
   113  0613                     	;# 
   114  0613                     	;# 
   115  0614                     	;# 
   116  0615                     	;# 
   117  0616                     	;# 
   118  0616                     	;# 
   119  0617                     	;# 
   120  0618                     	;# 
   121  0619                     	;# 
   122  0619                     	;# 
   123  061A                     	;# 
   124  061B                     	;# 
   125  061C                     	;# 
   126  061C                     	;# 
   127  0691                     	;# 
   128  0692                     	;# 
   129  0693                     	;# 
   130  0694                     	;# 
   131  0695                     	;# 
   132  0F0F                     	;# 
   133  0F10                     	;# 
   134  0F11                     	;# 
   135  0F12                     	;# 
   136  0F13                     	;# 
   137  0F14                     	;# 
   138  0F15                     	;# 
   139  0F16                     	;# 
   140  0F17                     	;# 
   141  0F18                     	;# 
   142  0F19                     	;# 
   143  0F1A                     	;# 
   144  0F1B                     	;# 
   145  0F1C                     	;# 
   146  0F1D                     	;# 
   147  0F1E                     	;# 
   148  0F1F                     	;# 
   149  0FE3                     	;# 
   150  0FE4                     	;# 
   151  0FE5                     	;# 
   152  0FE6                     	;# 
   153  0FE7                     	;# 
   154  0FE8                     	;# 
   155  0FE9                     	;# 
   156  0FEA                     	;# 
   157  0FEB                     	;# 
   158  0FED                     	;# 
   159  0FEE                     	;# 
   160  0FEF                     	;# 
   161  0000                     	;# 
   162  0001                     	;# 
   163  0002                     	;# 
   164  0003                     	;# 
   165  0004                     	;# 
   166  0005                     	;# 
   167  0006                     	;# 
   168  0007                     	;# 
   169  0008                     	;# 
   170  0009                     	;# 
   171  000A                     	;# 
   172  000B                     	;# 
   173  000C                     	;# 
   174  000E                     	;# 
   175  0011                     	;# 
   176  0012                     	;# 
   177  0013                     	;# 
   178  0015                     	;# 
   179  0016                     	;# 
   180  0016                     	;# 
   181  0017                     	;# 
   182  0018                     	;# 
   183  0019                     	;# 
   184  001A                     	;# 
   185  001B                     	;# 
   186  001C                     	;# 
   187  008C                     	;# 
   188  008E                     	;# 
   189  0091                     	;# 
   190  0092                     	;# 
   191  0093                     	;# 
   192  0095                     	;# 
   193  0096                     	;# 
   194  0097                     	;# 
   195  0099                     	;# 
   196  009A                     	;# 
   197  009B                     	;# 
   198  009B                     	;# 
   199  009C                     	;# 
   200  009D                     	;# 
   201  009E                     	;# 
   202  009F                     	;# 
   203  010C                     	;# 
   204  010E                     	;# 
   205  0111                     	;# 
   206  0112                     	;# 
   207  0113                     	;# 
   208  0114                     	;# 
   209  0115                     	;# 
   210  0116                     	;# 
   211  0117                     	;# 
   212  0118                     	;# 
   213  0119                     	;# 
   214  011D                     	;# 
   215  018C                     	;# 
   216  018E                     	;# 
   217  0191                     	;# 
   218  0191                     	;# 
   219  0192                     	;# 
   220  0193                     	;# 
   221  0193                     	;# 
   222  0194                     	;# 
   223  0195                     	;# 
   224  0196                     	;# 
   225  0197                     	;# 
   226  020C                     	;# 
   227  0211                     	;# 
   228  0211                     	;# 
   229  0212                     	;# 
   230  0212                     	;# 
   231  0213                     	;# 
   232  0213                     	;# 
   233  0214                     	;# 
   234  0214                     	;# 
   235  0215                     	;# 
   236  0215                     	;# 
   237  0215                     	;# 
   238  0216                     	;# 
   239  0216                     	;# 
   240  0217                     	;# 
   241  0217                     	;# 
   242  0391                     	;# 
   243  0392                     	;# 
   244  0393                     	;# 
   245  0498                     	;# 
   246  0498                     	;# 
   247  0499                     	;# 
   248  049A                     	;# 
   249  049B                     	;# 
   250  049B                     	;# 
   251  049C                     	;# 
   252  049E                     	;# 
   253  049F                     	;# 
   254  0611                     	;# 
   255  0612                     	;# 
   256  0613                     	;# 
   257  0613                     	;# 
   258  0614                     	;# 
   259  0615                     	;# 
   260  0616                     	;# 
   261  0616                     	;# 
   262  0617                     	;# 
   263  0618                     	;# 
   264  0619                     	;# 
   265  0619                     	;# 
   266  061A                     	;# 
   267  061B                     	;# 
   268  061C                     	;# 
   269  061C                     	;# 
   270  0691                     	;# 
   271  0692                     	;# 
   272  0693                     	;# 
   273  0694                     	;# 
   274  0695                     	;# 
   275  0F0F                     	;# 
   276  0F10                     	;# 
   277  0F11                     	;# 
   278  0F12                     	;# 
   279  0F13                     	;# 
   280  0F14                     	;# 
   281  0F15                     	;# 
   282  0F16                     	;# 
   283  0F17                     	;# 
   284  0F18                     	;# 
   285  0F19                     	;# 
   286  0F1A                     	;# 
   287  0F1B                     	;# 
   288  0F1C                     	;# 
   289  0F1D                     	;# 
   290  0F1E                     	;# 
   291  0F1F                     	;# 
   292  0FE3                     	;# 
   293  0FE4                     	;# 
   294  0FE5                     	;# 
   295  0FE6                     	;# 
   296  0FE7                     	;# 
   297  0FE8                     	;# 
   298  0FE9                     	;# 
   299  0FEA                     	;# 
   300  0FEB                     	;# 
   301  0FED                     	;# 
   302  0FEE                     	;# 
   303  0FEF                     	;# 
   304  0000                     	;# 
   305  0001                     	;# 
   306  0002                     	;# 
   307  0003                     	;# 
   308  0004                     	;# 
   309  0005                     	;# 
   310  0006                     	;# 
   311  0007                     	;# 
   312  0008                     	;# 
   313  0009                     	;# 
   314  000A                     	;# 
   315  000B                     	;# 
   316  000C                     	;# 
   317  000E                     	;# 
   318  0011                     	;# 
   319  0012                     	;# 
   320  0013                     	;# 
   321  0015                     	;# 
   322  0016                     	;# 
   323  0016                     	;# 
   324  0017                     	;# 
   325  0018                     	;# 
   326  0019                     	;# 
   327  001A                     	;# 
   328  001B                     	;# 
   329  001C                     	;# 
   330  008C                     	;# 
   331  008E                     	;# 
   332  0091                     	;# 
   333  0092                     	;# 
   334  0093                     	;# 
   335  0095                     	;# 
   336  0096                     	;# 
   337  0097                     	;# 
   338  0099                     	;# 
   339  009A                     	;# 
   340  009B                     	;# 
   341  009B                     	;# 
   342  009C                     	;# 
   343  009D                     	;# 
   344  009E                     	;# 
   345  009F                     	;# 
   346  010C                     	;# 
   347  010E                     	;# 
   348  0111                     	;# 
   349  0112                     	;# 
   350  0113                     	;# 
   351  0114                     	;# 
   352  0115                     	;# 
   353  0116                     	;# 
   354  0117                     	;# 
   355  0118                     	;# 
   356  0119                     	;# 
   357  011D                     	;# 
   358  018C                     	;# 
   359  018E                     	;# 
   360  0191                     	;# 
   361  0191                     	;# 
   362  0192                     	;# 
   363  0193                     	;# 
   364  0193                     	;# 
   365  0194                     	;# 
   366  0195                     	;# 
   367  0196                     	;# 
   368  0197                     	;# 
   369  020C                     	;# 
   370  0211                     	;# 
   371  0211                     	;# 
   372  0212                     	;# 
   373  0212                     	;# 
   374  0213                     	;# 
   375  0213                     	;# 
   376  0214                     	;# 
   377  0214                     	;# 
   378  0215                     	;# 
   379  0215                     	;# 
   380  0215                     	;# 
   381  0216                     	;# 
   382  0216                     	;# 
   383  0217                     	;# 
   384  0217                     	;# 
   385  0391                     	;# 
   386  0392                     	;# 
   387  0393                     	;# 
   388  0498                     	;# 
   389  0498                     	;# 
   390  0499                     	;# 
   391  049A                     	;# 
   392  049B                     	;# 
   393  049B                     	;# 
   394  049C                     	;# 
   395  049E                     	;# 
   396  049F                     	;# 
   397  0611                     	;# 
   398  0612                     	;# 
   399  0613                     	;# 
   400  0613                     	;# 
   401  0614                     	;# 
   402  0615                     	;# 
   403  0616                     	;# 
   404  0616                     	;# 
   405  0617                     	;# 
   406  0618                     	;# 
   407  0619                     	;# 
   408  0619                     	;# 
   409  061A                     	;# 
   410  061B                     	;# 
   411  061C                     	;# 
   412  061C                     	;# 
   413  0691                     	;# 
   414  0692                     	;# 
   415  0693                     	;# 
   416  0694                     	;# 
   417  0695                     	;# 
   418  0F0F                     	;# 
   419  0F10                     	;# 
   420  0F11                     	;# 
   421  0F12                     	;# 
   422  0F13                     	;# 
   423  0F14                     	;# 
   424  0F15                     	;# 
   425  0F16                     	;# 
   426  0F17                     	;# 
   427  0F18                     	;# 
   428  0F19                     	;# 
   429  0F1A                     	;# 
   430  0F1B                     	;# 
   431  0F1C                     	;# 
   432  0F1D                     	;# 
   433  0F1E                     	;# 
   434  0F1F                     	;# 
   435  0FE3                     	;# 
   436  0FE4                     	;# 
   437  0FE5                     	;# 
   438  0FE6                     	;# 
   439  0FE7                     	;# 
   440  0FE8                     	;# 
   441  0FE9                     	;# 
   442  0FEA                     	;# 
   443  0FEB                     	;# 
   444  0FED                     	;# 
   445  0FEE                     	;# 
   446  0FEF                     	;# 
   447  000C                     _PORTAbits	set	12
   448  000E                     _PORTCbits	set	14
   449  001B                     _PR2	set	27
   450  001C                     _T2CON	set	28
   451  0099                     _OSCCONbits	set	153
   452  008C                     _TRISAbits	set	140
   453  008E                     _TRISCbits	set	142
   454  018C                     _ANSELAbits	set	396
   455  018E                     _ANSELCbits	set	398
   456  0613                     _PWM1CONbits	set	1555
   457  0612                     _PWM1DCH	set	1554
   458  0616                     _PWM2CONbits	set	1558
   459  0615                     _PWM2DCH	set	1557
   460                           
   461                           	psect	text0
   462  0000                     __ptext0:	
   463                           
   464                           ;psect for function _initMiBus
   465                           ; #config settings
   466  0000                     
   467                           	psect	cinit
   468  07FE                     start_initialization:	
   469  07FE                     __initialization:	
   470  07FE                     end_of_initialization:	
   471                           ;End of C runtime variable initialization code
   472                           
   473  07FE                     __end_of__initialization:	
   474  07FE  0020               	movlb	0
   475  07FF  2F12               	ljmp	_main	;jump to C main() function
   476                           
   477                           	psect	cstackCOMMON
   478  0070                     __pcstackCOMMON:	
   479  0070                     ?_initMiBus:	
   480  0070                     ??_initMiBus:	
   481                           ; 0 bytes @ 0x0
   482                           
   483  0070                     ?_initT2:	
   484                           ; 0 bytes @ 0x0
   485                           
   486  0070                     ??_initT2:	
   487                           ; 0 bytes @ 0x0
   488                           
   489  0070                     ?_initPWM_T:	
   490                           ; 0 bytes @ 0x0
   491                           
   492  0070                     ??_initPWM_T:	
   493                           ; 0 bytes @ 0x0
   494                           
   495  0070                     ?_initPWM_V:	
   496                           ; 0 bytes @ 0x0
   497                           
   498  0070                     ??_initPWM_V:	
   499                           ; 0 bytes @ 0x0
   500                           
   501  0070                     ??_readMiBus:	
   502                           ; 0 bytes @ 0x0
   503                           
   504  0070                     ?_writeMiBus:	
   505                           ; 0 bytes @ 0x0
   506                           
   507  0070                     ??_writeMiBus:	
   508                           ; 0 bytes @ 0x0
   509                           
   510  0070                     ?_readMiBus:	
   511                           ; 0 bytes @ 0x0
   512                           
   513  0070                     ?_main:	
   514                           ; 1 bytes @ 0x0
   515                           
   516  0070                     ?___wmul:	
   517                           ; 2 bytes @ 0x0
   518                           
   519  0070                     ___wmul@multiplier:	
   520                           ; 2 bytes @ 0x0
   521                           
   522                           
   523                           ; 2 bytes @ 0x0
   524  0070                     	ds	2
   525  0072                     readMiBus@data:	
   526  0072                     writeMiBus@data:	
   527                           ; 1 bytes @ 0x2
   528                           
   529  0072                     ___wmul@multiplicand:	
   530                           ; 1 bytes @ 0x2
   531                           
   532                           
   533                           ; 2 bytes @ 0x2
   534  0072                     	ds	1
   535  0073                     readMiBus@i:	
   536  0073                     writeMiBus@i:	
   537                           ; 1 bytes @ 0x3
   538                           
   539                           
   540                           ; 1 bytes @ 0x3
   541  0073                     	ds	1
   542  0074                     ??___wmul:	
   543  0074                     ___wmul@product:	
   544                           ; 0 bytes @ 0x4
   545                           
   546                           
   547                           ; 2 bytes @ 0x4
   548  0074                     	ds	2
   549  0076                     ?___awdiv:	
   550  0076                     ___awdiv@divisor:	
   551                           ; 2 bytes @ 0x6
   552                           
   553                           
   554                           ; 2 bytes @ 0x6
   555  0076                     	ds	2
   556  0078                     ___awdiv@dividend:	
   557                           
   558                           ; 2 bytes @ 0x8
   559  0078                     	ds	2
   560  007A                     ??___awdiv:	
   561                           
   562                           ; 0 bytes @ 0xA
   563  007A                     	ds	1
   564  007B                     ??_main:	
   565                           
   566                           ; 0 bytes @ 0xB
   567  007B                     	ds	1
   568  007C                     main@data:	
   569                           
   570                           ; 1 bytes @ 0xC
   571  007C                     	ds	1
   572                           
   573                           	psect	cstackBANK0
   574  0020                     __pcstackBANK0:	
   575  0020                     ___awdiv@counter:	
   576                           
   577                           ; 1 bytes @ 0x0
   578  0020                     	ds	1
   579  0021                     ___awdiv@sign:	
   580                           
   581                           ; 1 bytes @ 0x1
   582  0021                     	ds	1
   583  0022                     ___awdiv@quotient:	
   584                           
   585                           ; 2 bytes @ 0x2
   586  0022                     	ds	2
   587                           
   588                           	psect	maintext
   589  0712                     __pmaintext:	
   590 ;;
   591 ;;Main: autosize = 0, tempsize = 1, incstack = 0, save=0
   592 ;;
   593 ;; *************** function _main *****************
   594 ;; Defined at:
   595 ;;		line 31 in file "main.c"
   596 ;; Parameters:    Size  Location     Type
   597 ;;		None
   598 ;; Auto vars:     Size  Location     Type
   599 ;;  data            1   12[COMMON] unsigned char 
   600 ;; Return value:  Size  Location     Type
   601 ;;                  2   26[COMMON] int 
   602 ;; Registers used:
   603 ;;		wreg, status,2, status,0, pclath, cstack
   604 ;; Tracked objects:
   605 ;;		On entry : 17F/0
   606 ;;		On exit  : 0/0
   607 ;;		Unchanged: 0/0
   608 ;; Data sizes:     COMMON   BANK0   BANK1
   609 ;;      Params:         0       0       0
   610 ;;      Locals:         1       0       0
   611 ;;      Temps:          1       0       0
   612 ;;      Totals:         2       0       0
   613 ;;Total ram usage:        2 bytes
   614 ;; Hardware stack levels required when called:    1
   615 ;; This function calls:
   616 ;;		_initMiBus
   617 ;;		_initT2
   618 ;;		_initPWM_T
   619 ;;		_initPWM_V
   620 ;;		_readMiBus
   621 ;;		_writeMiBus
   622 ;;		___awdiv
   623 ;;		___wmul
   624 ;; This function is called by:
   625 ;;		Startup code after reset
   626 ;; This function uses a non-reentrant model
   627 ;;
   628                           
   629                           
   630                           ;psect for function _main
   631  0712                     _main:	
   632                           
   633                           ;main.c: 34: OSCCONbits.IRCF = 0b1111;
   634                           
   635                           ;incstack = 0
   636                           ; Regs used in _main: [wreg+status,2+status,0+pclath+cstack]
   637  0712  3078               	movlw	120
   638  0713  0021               	movlb	1	; select bank1
   639  0714  0499               	iorwf	25,f	;volatile
   640                           
   641                           ;main.c: 35: _delay((unsigned long)((10)*(16000000/4000000.0)));
   642  0715  300D               	movlw	13
   643  0716  00FB               	movwf	??_main
   644  0717                     u817:	
   645  0717  0BFB               	decfsz	??_main,f
   646  0718  2F17               	goto	u817
   647                           
   648                           ;main.c: 38: initMiBus();
   649  0719  26A3               	fcall	_initMiBus
   650                           
   651                           ;main.c: 41: initT2();
   652  071A  2689               	fcall	_initT2
   653                           
   654                           ;main.c: 42: initPWM_T();
   655  071B  268F               	fcall	_initPWM_T
   656                           
   657                           ;main.c: 43: initPWM_V();
   658  071C  2699               	fcall	_initPWM_V
   659                           
   660                           ;main.c: 46: TRISAbits.TRISA5 = 1;
   661  071D  0021               	movlb	1	; select bank1
   662  071E  168C               	bsf	12,5	;volatile
   663                           
   664                           ;main.c: 49: unsigned char data = 0;
   665  071F  01FC               	clrf	main@data
   666  0720                     l861:	
   667                           ;main.c: 52: while(1) {
   668                           
   669                           
   670                           ;main.c: 54: data = readMiBus();
   671  0720  26D1               	fcall	_readMiBus
   672  0721  00FB               	movwf	??_main
   673  0722  087B               	movf	??_main,w
   674  0723  00FC               	movwf	main@data
   675                           
   676                           ;main.c: 57: if (PORTAbits.RA5 == 0) {
   677  0724  0020               	movlb	0	; select bank0
   678  0725  1A8C               	btfsc	12,5	;volatile
   679  0726  2F4B               	goto	l873
   680                           
   681                           ;main.c: 58: if (data == 0b00000001) {
   682  0727  087C               	movf	main@data,w
   683  0728  3A01               	xorlw	1
   684  0729  1D03               	skipz
   685  072A  2F2D               	goto	l869
   686                           
   687                           ;main.c: 59: PR2 = 1;
   688  072B  3001               	movlw	1
   689  072C  2F49               	goto	L1
   690  072D                     l869:	
   691                           ;main.c: 60: } else {
   692                           
   693                           
   694                           ;main.c: 61: data = 256 - data;
   695  072D  09FC               	comf	main@data,f
   696  072E  0AFC               	incf	main@data,f
   697                           
   698                           ;main.c: 62: PR2 = (((data - 1) * (255 - 130)) / (255 - 1)) + 130;
   699  072F  30FE               	movlw	254
   700  0730  00F6               	movwf	?___awdiv
   701  0731  3000               	movlw	0
   702  0732  00F7               	movwf	?___awdiv+1
   703  0733  087C               	movf	main@data,w
   704  0734  3EFF               	addlw	255
   705  0735  00F0               	movwf	?___wmul
   706  0736  30FF               	movlw	255
   707  0737  1803               	skipnc
   708  0738  3000               	movlw	0
   709  0739  00F1               	movwf	?___wmul+1
   710  073A  307D               	movlw	125
   711  073B  00F2               	movwf	?___wmul+2
   712  073C  3000               	movlw	0
   713  073D  00F3               	movwf	?___wmul+3
   714  073E  26B4               	fcall	___wmul
   715  073F  0871               	movf	?___wmul+1,w
   716  0740  01F9               	clrf	?___awdiv+3
   717  0741  07F9               	addwf	?___awdiv+3,f
   718  0742  0870               	movf	?___wmul,w
   719  0743  01F8               	clrf	?___awdiv+2
   720  0744  07F8               	addwf	?___awdiv+2,f
   721  0745  2753               	fcall	___awdiv
   722  0746  0876               	movf	?___awdiv,w
   723  0747  3E82               	addlw	130
   724  0748  0020               	movlb	0	; select bank0
   725  0749                     L1:	
   726  0749  009B               	movwf	27	;volatile
   727                           
   728                           ;main.c: 63: }
   729                           ;main.c: 66: } else {
   730  074A  2F50               	goto	l875
   731  074B                     l873:	
   732                           
   733                           ;main.c: 67: PWM2DCH = 255 - data;
   734  074B  037C               	decf	main@data,w
   735  074C  3AFF               	xorlw	255
   736  074D  3EFF               	addlw	255
   737  074E  002C               	movlb	12	; select bank12
   738  074F  0095               	movwf	21	;volatile
   739  0750                     l875:	
   740                           
   741                           ;main.c: 68: }
   742                           ;main.c: 70: writeMiBus(data);
   743  0750  087C               	movf	main@data,w
   744  0751  27A7               	fcall	_writeMiBus
   745  0752  2F20               	goto	l861
   746  0753                     __end_of_main:	
   747                           
   748                           	psect	text1
   749  06B4                     __ptext1:	
   750 ;; *************** function ___wmul *****************
   751 ;; Defined at:
   752 ;;		line 3 in file "/opt/microchip/xc8/v1.21/sources/pic/wmul.c"
   753 ;; Parameters:    Size  Location     Type
   754 ;;  multiplier      2    0[COMMON] unsigned int 
   755 ;;  multiplicand    2    2[COMMON] unsigned int 
   756 ;; Auto vars:     Size  Location     Type
   757 ;;  product         2    4[COMMON] unsigned int 
   758 ;; Return value:  Size  Location     Type
   759 ;;                  2    0[COMMON] unsigned int 
   760 ;; Registers used:
   761 ;;		wreg, status,2, status,0
   762 ;; Tracked objects:
   763 ;;		On entry : 0/0
   764 ;;		On exit  : 0/0
   765 ;;		Unchanged: 0/0
   766 ;; Data sizes:     COMMON   BANK0   BANK1
   767 ;;      Params:         4       0       0
   768 ;;      Locals:         2       0       0
   769 ;;      Temps:          0       0       0
   770 ;;      Totals:         6       0       0
   771 ;;Total ram usage:        6 bytes
   772 ;; Hardware stack levels used:    1
   773 ;; This function calls:
   774 ;;		Nothing
   775 ;; This function is called by:
   776 ;;		_main
   777 ;; This function uses a non-reentrant model
   778 ;;
   779                           
   780                           
   781                           ;psect for function ___wmul
   782  06B4                     ___wmul:	
   783                           
   784                           ;incstack = 0
   785                           ; Regs used in ___wmul: [wreg+status,2+status,0]
   786  06B4  01F4               	clrf	___wmul@product
   787  06B5  01F5               	clrf	___wmul@product+1
   788  06B6                     l717:	
   789  06B6  1C70               	btfss	___wmul@multiplier,0
   790  06B7  2EBC               	goto	l477
   791  06B8  0872               	movf	___wmul@multiplicand,w
   792  06B9  07F4               	addwf	___wmul@product,f
   793  06BA  0873               	movf	___wmul@multiplicand+1,w
   794  06BB  3DF5               	addwfc	___wmul@product+1,f
   795  06BC                     l477:	
   796  06BC  3001               	movlw	1
   797  06BD                     u425:	
   798  06BD  35F2               	lslf	___wmul@multiplicand,f
   799  06BE  0DF3               	rlf	___wmul@multiplicand+1,f
   800  06BF  0B89               	decfsz	9,f
   801  06C0  2EBD               	goto	u425
   802  06C1  3001               	movlw	1
   803  06C2                     u435:	
   804  06C2  36F1               	lsrf	___wmul@multiplier+1,f
   805  06C3  0CF0               	rrf	___wmul@multiplier,f
   806  06C4  0B89               	decfsz	9,f
   807  06C5  2EC2               	goto	u435
   808  06C6  0871               	movf	___wmul@multiplier+1,w
   809  06C7  0470               	iorwf	___wmul@multiplier,w
   810  06C8  1D03               	skipz
   811  06C9  2EB6               	goto	l717
   812  06CA  0875               	movf	___wmul@product+1,w
   813  06CB  01F1               	clrf	?___wmul+1
   814  06CC  07F1               	addwf	?___wmul+1,f
   815  06CD  0874               	movf	___wmul@product,w
   816  06CE  01F0               	clrf	?___wmul
   817  06CF  07F0               	addwf	?___wmul,f
   818  06D0  0008               	return
   819  06D1                     __end_of___wmul:	
   820                           
   821                           	psect	text2
   822  0753                     __ptext2:	
   823 ;; *************** function ___awdiv *****************
   824 ;; Defined at:
   825 ;;		line 5 in file "/opt/microchip/xc8/v1.21/sources/pic/awdiv.c"
   826 ;; Parameters:    Size  Location     Type
   827 ;;  divisor         2    6[COMMON] int 
   828 ;;  dividend        2    8[COMMON] int 
   829 ;; Auto vars:     Size  Location     Type
   830 ;;  quotient        2    2[BANK0 ] int 
   831 ;;  sign            1    1[BANK0 ] unsigned char 
   832 ;;  counter         1    0[BANK0 ] unsigned char 
   833 ;; Return value:  Size  Location     Type
   834 ;;                  2    6[COMMON] int 
   835 ;; Registers used:
   836 ;;		wreg, status,2, status,0
   837 ;; Tracked objects:
   838 ;;		On entry : 0/0
   839 ;;		On exit  : 0/0
   840 ;;		Unchanged: 0/0
   841 ;; Data sizes:     COMMON   BANK0   BANK1
   842 ;;      Params:         4       0       0
   843 ;;      Locals:         0       4       0
   844 ;;      Temps:          1       0       0
   845 ;;      Totals:         5       4       0
   846 ;;Total ram usage:        9 bytes
   847 ;; Hardware stack levels used:    1
   848 ;; This function calls:
   849 ;;		Nothing
   850 ;; This function is called by:
   851 ;;		_main
   852 ;; This function uses a non-reentrant model
   853 ;;
   854                           
   855                           
   856                           ;psect for function ___awdiv
   857  0753                     ___awdiv:	
   858                           
   859                           ;incstack = 0
   860                           ; Regs used in ___awdiv: [wreg+status,2+status,0]
   861  0753  0020               	movlb	0	; select bank0
   862  0754  01A1               	clrf	___awdiv@sign
   863  0755  1FF7               	btfss	___awdiv@divisor+1,7
   864  0756  2F5E               	goto	l809
   865  0757  09F6               	comf	___awdiv@divisor,f
   866  0758  09F7               	comf	___awdiv@divisor+1,f
   867  0759  0AF6               	incf	___awdiv@divisor,f
   868  075A  1903               	skipnz
   869  075B  0AF7               	incf	___awdiv@divisor+1,f
   870  075C  01A1               	clrf	___awdiv@sign
   871  075D  0AA1               	incf	___awdiv@sign,f
   872  075E                     l809:	
   873  075E  1FF9               	btfss	___awdiv@dividend+1,7
   874  075F  2F69               	goto	l815
   875  0760  09F8               	comf	___awdiv@dividend,f
   876  0761  09F9               	comf	___awdiv@dividend+1,f
   877  0762  0AF8               	incf	___awdiv@dividend,f
   878  0763  1903               	skipnz
   879  0764  0AF9               	incf	___awdiv@dividend+1,f
   880  0765  3001               	movlw	1
   881  0766  00FA               	movwf	??___awdiv
   882  0767  087A               	movf	??___awdiv,w
   883  0768  06A1               	xorwf	___awdiv@sign,f
   884  0769                     l815:	
   885  0769  01A2               	clrf	___awdiv@quotient
   886  076A  01A3               	clrf	___awdiv@quotient+1
   887  076B  0877               	movf	___awdiv@divisor+1,w
   888  076C  0476               	iorwf	___awdiv@divisor,w
   889  076D  1903               	skipnz
   890  076E  2F98               	goto	l837
   891  076F  01A0               	clrf	___awdiv@counter
   892  0770  0AA0               	incf	___awdiv@counter,f
   893  0771                     l825:	
   894  0771  1BF7               	btfsc	___awdiv@divisor+1,7
   895  0772  2F7D               	goto	l827
   896  0773  3001               	movlw	1
   897  0774                     u725:	
   898  0774  35F6               	lslf	___awdiv@divisor,f
   899  0775  0DF7               	rlf	___awdiv@divisor+1,f
   900  0776  0B89               	decfsz	9,f
   901  0777  2F74               	goto	u725
   902  0778  3001               	movlw	1
   903  0779  00FA               	movwf	??___awdiv
   904  077A  087A               	movf	??___awdiv,w
   905  077B  07A0               	addwf	___awdiv@counter,f
   906  077C  2F71               	goto	l825
   907  077D                     l827:	
   908  077D  3001               	movlw	1
   909  077E                     u745:	
   910  077E  35A2               	lslf	___awdiv@quotient,f
   911  077F  0DA3               	rlf	___awdiv@quotient+1,f
   912  0780  0B89               	decfsz	9,f
   913  0781  2F7E               	goto	u745
   914  0782  0877               	movf	___awdiv@divisor+1,w
   915  0783  0279               	subwf	___awdiv@dividend+1,w
   916  0784  1D03               	skipz
   917  0785  2F88               	goto	u755
   918  0786  0876               	movf	___awdiv@divisor,w
   919  0787  0278               	subwf	___awdiv@dividend,w
   920  0788                     u755:	
   921  0788  1C03               	skipc
   922  0789  2F8F               	goto	l833
   923  078A  0876               	movf	___awdiv@divisor,w
   924  078B  02F8               	subwf	___awdiv@dividend,f
   925  078C  0877               	movf	___awdiv@divisor+1,w
   926  078D  3BF9               	subwfb	___awdiv@dividend+1,f
   927  078E  1422               	bsf	___awdiv@quotient,0
   928  078F                     l833:	
   929  078F  3001               	movlw	1
   930  0790                     u765:	
   931  0790  36F7               	lsrf	___awdiv@divisor+1,f
   932  0791  0CF6               	rrf	___awdiv@divisor,f
   933  0792  0B89               	decfsz	9,f
   934  0793  2F90               	goto	u765
   935  0794  3001               	movlw	1
   936  0795  02A0               	subwf	___awdiv@counter,f
   937  0796  1D03               	btfss	3,2
   938  0797  2F7D               	goto	l827
   939  0798                     l837:	
   940  0798  0821               	movf	___awdiv@sign,w
   941  0799  1903               	btfsc	3,2
   942  079A  2FA0               	goto	l841
   943  079B  09A2               	comf	___awdiv@quotient,f
   944  079C  09A3               	comf	___awdiv@quotient+1,f
   945  079D  0AA2               	incf	___awdiv@quotient,f
   946  079E  1903               	skipnz
   947  079F  0AA3               	incf	___awdiv@quotient+1,f
   948  07A0                     l841:	
   949  07A0  0823               	movf	___awdiv@quotient+1,w
   950  07A1  01F7               	clrf	?___awdiv+1
   951  07A2  07F7               	addwf	?___awdiv+1,f
   952  07A3  0822               	movf	___awdiv@quotient,w
   953  07A4  01F6               	clrf	?___awdiv
   954  07A5  07F6               	addwf	?___awdiv,f
   955  07A6  0008               	return
   956  07A7                     __end_of___awdiv:	
   957                           
   958                           	psect	text3
   959  07A7                     __ptext3:	
   960 ;; *************** function _writeMiBus *****************
   961 ;; Defined at:
   962 ;;		line 55 in file "miBus.c"
   963 ;; Parameters:    Size  Location     Type
   964 ;;  data            1    wreg     unsigned char 
   965 ;; Auto vars:     Size  Location     Type
   966 ;;  data            1    2[COMMON] unsigned char 
   967 ;;  i               1    3[COMMON] unsigned char 
   968 ;; Return value:  Size  Location     Type
   969 ;;		None               void
   970 ;; Registers used:
   971 ;;		wreg, status,2, status,0
   972 ;; Tracked objects:
   973 ;;		On entry : 0/0
   974 ;;		On exit  : 0/0
   975 ;;		Unchanged: 0/0
   976 ;; Data sizes:     COMMON   BANK0   BANK1
   977 ;;      Params:         0       0       0
   978 ;;      Locals:         2       0       0
   979 ;;      Temps:          2       0       0
   980 ;;      Totals:         4       0       0
   981 ;;Total ram usage:        4 bytes
   982 ;; Hardware stack levels used:    1
   983 ;; This function calls:
   984 ;;		Nothing
   985 ;; This function is called by:
   986 ;;		_main
   987 ;; This function uses a non-reentrant model
   988 ;;
   989                           
   990                           
   991                           ;psect for function _writeMiBus
   992  07A7                     _writeMiBus:	
   993                           
   994                           ;incstack = 0
   995                           ; Regs used in _writeMiBus: [wreg+status,2+status,0]
   996                           ;writeMiBus@data stored from wreg
   997  07A7  00F2               	movwf	writeMiBus@data
   998                           
   999                           ;miBus.c: 56: unsigned char i = 0;
  1000  07A8  01F3               	clrf	writeMiBus@i
  1001                           
  1002                           ;miBus.c: 58: for (i = 0; i < 16; i++) {
  1003  07A9  01F3               	clrf	writeMiBus@i
  1004  07AA  3010               	movlw	16
  1005  07AB  0273               	subwf	writeMiBus@i,w
  1006  07AC  1803               	btfsc	3,0
  1007  07AD  2FC1               	goto	l773
  1008  07AE                     l79:	
  1009                           ;miBus.c: 59: while (PORTCbits.RC0 == 1);
  1010                           
  1011  07AE  0020               	movlb	0	; select bank0
  1012  07AF  180E               	btfsc	14,0	;volatile
  1013  07B0  2FAE               	goto	l79
  1014                           
  1015                           ;miBus.c: 60: _delay((unsigned long)((10)*(16000000/4000000.0)));
  1016  07B1  300D               	movlw	13
  1017  07B2  00F0               	movwf	??_writeMiBus
  1018  07B3                     u827:	
  1019  07B3  0BF0               	decfsz	??_writeMiBus,f
  1020  07B4  2FB3               	goto	u827
  1021                           
  1022                           ;miBus.c: 61: PORTCbits.RC2 = 0;
  1023  07B5  0020               	movlb	0	; select bank0
  1024  07B6  110E               	bcf	14,2	;volatile
  1025  07B7                     l82:	
  1026                           ;miBus.c: 62: while (PORTCbits.RC0 == 0);
  1027                           
  1028  07B7  1C0E               	btfss	14,0	;volatile
  1029  07B8  2FB7               	goto	l82
  1030  07B9  3001               	movlw	1
  1031  07BA  00F0               	movwf	??_writeMiBus
  1032  07BB  0870               	movf	??_writeMiBus,w
  1033  07BC  07F3               	addwf	writeMiBus@i,f
  1034  07BD  3010               	movlw	16
  1035  07BE  0273               	subwf	writeMiBus@i,w
  1036  07BF  1C03               	skipc
  1037  07C0  2FAE               	goto	l79
  1038  07C1                     l773:	
  1039                           
  1040                           ;miBus.c: 63: }
  1041                           ;miBus.c: 65: for (i = 0; i < 8; i++) {
  1042  07C1  01F3               	clrf	writeMiBus@i
  1043  07C2  3008               	movlw	8
  1044  07C3  0273               	subwf	writeMiBus@i,w
  1045  07C4  1803               	btfsc	3,0
  1046  07C5  2FE9               	goto	l787
  1047  07C6                     l87:	
  1048                           ;miBus.c: 66: while (PORTCbits.RC0 == 1);
  1049                           
  1050  07C6  0020               	movlb	0	; select bank0
  1051  07C7  180E               	btfsc	14,0	;volatile
  1052  07C8  2FC6               	goto	l87
  1053                           
  1054                           ;miBus.c: 67: _delay((unsigned long)((10)*(16000000/4000000.0)));
  1055  07C9  300D               	movlw	13
  1056  07CA  00F0               	movwf	??_writeMiBus
  1057  07CB                     u837:	
  1058  07CB  0BF0               	decfsz	??_writeMiBus,f
  1059  07CC  2FCB               	goto	u837
  1060                           
  1061                           ;miBus.c: 68: PORTCbits.RC2 = (((data) >> (i)) & 1);
  1062  07CD  0872               	movf	writeMiBus@data,w
  1063  07CE  00F0               	movwf	??_writeMiBus
  1064  07CF  0A73               	incf	writeMiBus@i,w
  1065  07D0  2FD2               	goto	u624
  1066  07D1                     u625:	
  1067  07D1  36F0               	lsrf	??_writeMiBus,f
  1068  07D2                     u624:	
  1069  07D2  0B89               	decfsz	9,f
  1070  07D3  2FD1               	goto	u625
  1071  07D4  0870               	movf	??_writeMiBus,w
  1072  07D5  3901               	andlw	1
  1073  07D6  00F1               	movwf	??_writeMiBus+1
  1074  07D7  0DF1               	rlf	??_writeMiBus+1,f
  1075  07D8  0DF1               	rlf	??_writeMiBus+1,f
  1076  07D9  0020               	movlb	0	; select bank0
  1077  07DA  080E               	movf	14,w	;volatile
  1078  07DB  0671               	xorwf	??_writeMiBus+1,w
  1079  07DC  39FB               	andlw	-5
  1080  07DD  0671               	xorwf	??_writeMiBus+1,w
  1081  07DE  008E               	movwf	14	;volatile
  1082  07DF                     l90:	
  1083                           ;miBus.c: 69: while (PORTCbits.RC0 == 0);
  1084                           
  1085  07DF  1C0E               	btfss	14,0	;volatile
  1086  07E0  2FDF               	goto	l90
  1087  07E1  3001               	movlw	1
  1088  07E2  00F0               	movwf	??_writeMiBus
  1089  07E3  0870               	movf	??_writeMiBus,w
  1090  07E4  07F3               	addwf	writeMiBus@i,f
  1091  07E5  3008               	movlw	8
  1092  07E6  0273               	subwf	writeMiBus@i,w
  1093  07E7  1C03               	skipc
  1094  07E8  2FC6               	goto	l87
  1095  07E9                     l787:	
  1096                           
  1097                           ;miBus.c: 70: }
  1098                           ;miBus.c: 72: for (i = 0; i < 2; i++) {
  1099  07E9  01F3               	clrf	writeMiBus@i
  1100  07EA                     L2:	
  1101  07EA  3002               	movlw	2
  1102  07EB  0273               	subwf	writeMiBus@i,w
  1103  07EC  1803               	btfsc	3,0
  1104  07ED  0008               	return
  1105  07EE                     l95:	
  1106                           ;miBus.c: 73: while (PORTCbits.RC0 == 1);
  1107                           
  1108  07EE  0020               	movlb	0	; select bank0
  1109  07EF  180E               	btfsc	14,0	;volatile
  1110  07F0  2FEE               	goto	l95
  1111                           
  1112                           ;miBus.c: 74: _delay((unsigned long)((10)*(16000000/4000000.0)));
  1113  07F1  300D               	movlw	13
  1114  07F2  00F0               	movwf	??_writeMiBus
  1115  07F3                     u847:	
  1116  07F3  0BF0               	decfsz	??_writeMiBus,f
  1117  07F4  2FF3               	goto	u847
  1118                           
  1119                           ;miBus.c: 75: PORTCbits.RC2 = 1;
  1120  07F5  0020               	movlb	0	; select bank0
  1121  07F6  150E               	bsf	14,2	;volatile
  1122  07F7                     l98:	
  1123                           ;miBus.c: 76: while (PORTCbits.RC0 == 0);
  1124                           
  1125  07F7  1C0E               	btfss	14,0	;volatile
  1126  07F8  2FF7               	goto	l98
  1127  07F9  3001               	movlw	1
  1128  07FA  00F0               	movwf	??_writeMiBus
  1129  07FB  0870               	movf	??_writeMiBus,w
  1130  07FC  07F3               	addwf	writeMiBus@i,f
  1131  07FD  2FEA               	goto	L2
  1132  07FE                     __end_of_writeMiBus:	
  1133                           
  1134                           	psect	text4
  1135  06D1                     __ptext4:	
  1136 ;; *************** function _readMiBus *****************
  1137 ;; Defined at:
  1138 ;;		line 21 in file "miBus.c"
  1139 ;; Parameters:    Size  Location     Type
  1140 ;;		None
  1141 ;; Auto vars:     Size  Location     Type
  1142 ;;  i               1    3[COMMON] unsigned char 
  1143 ;;  data            1    2[COMMON] unsigned char 
  1144 ;; Return value:  Size  Location     Type
  1145 ;;                  1    wreg      unsigned char 
  1146 ;; Registers used:
  1147 ;;		wreg, status,2, status,0
  1148 ;; Tracked objects:
  1149 ;;		On entry : 0/0
  1150 ;;		On exit  : 0/0
  1151 ;;		Unchanged: 0/0
  1152 ;; Data sizes:     COMMON   BANK0   BANK1
  1153 ;;      Params:         0       0       0
  1154 ;;      Locals:         2       0       0
  1155 ;;      Temps:          2       0       0
  1156 ;;      Totals:         4       0       0
  1157 ;;Total ram usage:        4 bytes
  1158 ;; Hardware stack levels used:    1
  1159 ;; This function calls:
  1160 ;;		Nothing
  1161 ;; This function is called by:
  1162 ;;		_main
  1163 ;; This function uses a non-reentrant model
  1164 ;;
  1165                           
  1166                           
  1167                           ;psect for function _readMiBus
  1168  06D1                     _readMiBus:	
  1169                           
  1170                           ;miBus.c: 22: unsigned char i = 0;
  1171                           
  1172                           ;incstack = 0
  1173                           ; Regs used in _readMiBus: [wreg+status,2+status,0]
  1174  06D1  01F3               	clrf	readMiBus@i
  1175                           
  1176                           ;miBus.c: 23: unsigned char data = 0b00000000;
  1177  06D2  01F2               	clrf	readMiBus@data
  1178  06D3                     l735:	
  1179                           ;miBus.c: 26: do {
  1180                           
  1181                           
  1182                           ;miBus.c: 36: i = 0;
  1183  06D3  01F3               	clrf	readMiBus@i
  1184  06D4                     l737:	
  1185  06D4  3010               	movlw	16
  1186  06D5  0273               	subwf	readMiBus@i,w
  1187  06D6  1803               	btfsc	3,0
  1188  06D7  2EE9               	goto	l739
  1189  06D8                     l55:	
  1190                           ;miBus.c: 30: while (PORTCbits.RC0 == 1);
  1191                           
  1192                           ;miBus.c: 29: while (i < 16) {
  1193                           
  1194                           ;miBus.c: 28: i = 0;
  1195                           
  1196  06D8  0020               	movlb	0	; select bank0
  1197  06D9  180E               	btfsc	14,0	;volatile
  1198  06DA  2ED8               	goto	l55
  1199  06DB                     l58:	
  1200                           ;miBus.c: 31: while (PORTCbits.RC0 == 0);
  1201                           
  1202  06DB  1C0E               	btfss	14,0	;volatile
  1203  06DC  2EDB               	goto	l58
  1204                           
  1205                           ;miBus.c: 32: _delay((unsigned long)((10)*(16000000/4000000.0)));
  1206  06DD  300D               	movlw	13
  1207  06DE  00F0               	movwf	??_readMiBus
  1208  06DF                     u857:	
  1209  06DF  0BF0               	decfsz	??_readMiBus,f
  1210  06E0  2EDF               	goto	u857
  1211                           
  1212                           ;miBus.c: 33: if (PORTCbits.RC1 == 0) {
  1213  06E1  0020               	movlb	0	; select bank0
  1214  06E2  188E               	btfsc	14,1	;volatile
  1215  06E3  2ED3               	goto	l735
  1216                           
  1217                           ;miBus.c: 34: i++;
  1218  06E4  3001               	movlw	1
  1219  06E5  00F0               	movwf	??_readMiBus
  1220  06E6  0870               	movf	??_readMiBus,w
  1221  06E7  07F3               	addwf	readMiBus@i,f
  1222                           
  1223                           ;miBus.c: 35: } else {
  1224  06E8  2ED4               	goto	l737
  1225  06E9                     l739:	
  1226                           
  1227                           ;miBus.c: 37: }
  1228                           ;miBus.c: 38: }
  1229                           ;miBus.c: 41: for (i = 0; i < 8; i++) {
  1230  06E9  01F3               	clrf	readMiBus@i
  1231  06EA  3008               	movlw	8
  1232  06EB  0273               	subwf	readMiBus@i,w
  1233  06EC  1803               	btfsc	3,0
  1234  06ED  2F0D               	goto	l753
  1235  06EE                     l66:	
  1236                           ;miBus.c: 42: while (PORTCbits.RC0 == 1);
  1237                           
  1238  06EE  0020               	movlb	0	; select bank0
  1239  06EF  180E               	btfsc	14,0	;volatile
  1240  06F0  2EEE               	goto	l66
  1241  06F1                     l69:	
  1242                           ;miBus.c: 43: while (PORTCbits.RC0 == 0);
  1243                           
  1244  06F1  1C0E               	btfss	14,0	;volatile
  1245  06F2  2EF1               	goto	l69
  1246                           
  1247                           ;miBus.c: 44: _delay((unsigned long)((10)*(16000000/4000000.0)));
  1248  06F3  300D               	movlw	13
  1249  06F4  00F0               	movwf	??_readMiBus
  1250  06F5                     u867:	
  1251  06F5  0BF0               	decfsz	??_readMiBus,f
  1252  06F6  2EF5               	goto	u867
  1253                           
  1254                           ;miBus.c: 45: if (PORTCbits.RC1 == 1) {
  1255  06F7  0020               	movlb	0	; select bank0
  1256  06F8  1C8E               	btfss	14,1	;volatile
  1257  06F9  2F05               	goto	l72
  1258                           
  1259                           ;miBus.c: 46: data |= (1 << (i));
  1260  06FA  3001               	movlw	1
  1261  06FB  00F0               	movwf	??_readMiBus
  1262  06FC  0A73               	incf	readMiBus@i,w
  1263  06FD  2EFF               	goto	u534
  1264  06FE                     u535:	
  1265  06FE  35F0               	lslf	??_readMiBus,f
  1266  06FF                     u534:	
  1267  06FF  0B89               	decfsz	9,f
  1268  0700  2EFE               	goto	u535
  1269  0701  0870               	movf	??_readMiBus,w
  1270  0702  00F1               	movwf	??_readMiBus+1
  1271  0703  0871               	movf	??_readMiBus+1,w
  1272  0704  04F2               	iorwf	readMiBus@data,f
  1273  0705                     l72:	
  1274  0705  3001               	movlw	1
  1275  0706  00F0               	movwf	??_readMiBus
  1276  0707  0870               	movf	??_readMiBus,w
  1277  0708  07F3               	addwf	readMiBus@i,f
  1278  0709  3008               	movlw	8
  1279  070A  0273               	subwf	readMiBus@i,w
  1280  070B  1C03               	skipc
  1281  070C  2EEE               	goto	l66
  1282  070D                     l753:	
  1283                           
  1284                           ;miBus.c: 47: }
  1285                           ;miBus.c: 48: }
  1286                           ;miBus.c: 50: } while (data == 0b00000000);
  1287  070D  0872               	movf	readMiBus@data,w
  1288  070E  1903               	btfsc	3,2
  1289  070F  2ED3               	goto	l735
  1290                           
  1291                           ;miBus.c: 52: return data;
  1292  0710  0872               	movf	readMiBus@data,w
  1293  0711  0008               	return
  1294  0712                     __end_of_readMiBus:	
  1295                           
  1296                           	psect	text5
  1297  0699                     __ptext5:	
  1298 ;; *************** function _initPWM_V *****************
  1299 ;; Defined at:
  1300 ;;		line 26 in file "pwm.c"
  1301 ;; Parameters:    Size  Location     Type
  1302 ;;		None
  1303 ;; Auto vars:     Size  Location     Type
  1304 ;;		None
  1305 ;; Return value:  Size  Location     Type
  1306 ;;		None               void
  1307 ;; Registers used:
  1308 ;;		wreg
  1309 ;; Tracked objects:
  1310 ;;		On entry : 0/0
  1311 ;;		On exit  : 0/0
  1312 ;;		Unchanged: 0/0
  1313 ;; Data sizes:     COMMON   BANK0   BANK1
  1314 ;;      Params:         0       0       0
  1315 ;;      Locals:         0       0       0
  1316 ;;      Temps:          0       0       0
  1317 ;;      Totals:         0       0       0
  1318 ;;Total ram usage:        0 bytes
  1319 ;; Hardware stack levels used:    1
  1320 ;; This function calls:
  1321 ;;		Nothing
  1322 ;; This function is called by:
  1323 ;;		_main
  1324 ;; This function uses a non-reentrant model
  1325 ;;
  1326                           
  1327                           
  1328                           ;psect for function _initPWM_V
  1329  0699                     _initPWM_V:	
  1330                           
  1331                           ;pwm.c: 28: TRISCbits.TRISC3 = 0;
  1332                           
  1333                           ;incstack = 0
  1334                           ; Regs used in _initPWM_V: [wreg]
  1335  0699  0021               	movlb	1	; select bank1
  1336  069A  118E               	bcf	14,3	;volatile
  1337                           
  1338                           ;pwm.c: 29: PWM2CONbits.PWM2EN = 1;
  1339  069B  002C               	movlb	12	; select bank12
  1340  069C  1796               	bsf	22,7	;volatile
  1341                           
  1342                           ;pwm.c: 30: PWM2CONbits.PWM2OE = 1;
  1343  069D  1716               	bsf	22,6	;volatile
  1344                           
  1345                           ;pwm.c: 31: PWM2CONbits.PWM2OUT = 0;
  1346  069E  1296               	bcf	22,5	;volatile
  1347                           
  1348                           ;pwm.c: 32: PWM2CONbits.PWM2POL = 0;
  1349  069F  1216               	bcf	22,4	;volatile
  1350                           
  1351                           ;pwm.c: 34: PWM2DCH = 100;
  1352  06A0  3064               	movlw	100
  1353  06A1  0095               	movwf	21	;volatile
  1354  06A2  0008               	return
  1355  06A3                     __end_of_initPWM_V:	
  1356                           
  1357                           	psect	text6
  1358  068F                     __ptext6:	
  1359 ;; *************** function _initPWM_T *****************
  1360 ;; Defined at:
  1361 ;;		line 15 in file "pwm.c"
  1362 ;; Parameters:    Size  Location     Type
  1363 ;;		None
  1364 ;; Auto vars:     Size  Location     Type
  1365 ;;		None
  1366 ;; Return value:  Size  Location     Type
  1367 ;;		None               void
  1368 ;; Registers used:
  1369 ;;		wreg
  1370 ;; Tracked objects:
  1371 ;;		On entry : 0/0
  1372 ;;		On exit  : 0/0
  1373 ;;		Unchanged: 0/0
  1374 ;; Data sizes:     COMMON   BANK0   BANK1
  1375 ;;      Params:         0       0       0
  1376 ;;      Locals:         0       0       0
  1377 ;;      Temps:          0       0       0
  1378 ;;      Totals:         0       0       0
  1379 ;;Total ram usage:        0 bytes
  1380 ;; Hardware stack levels used:    1
  1381 ;; This function calls:
  1382 ;;		Nothing
  1383 ;; This function is called by:
  1384 ;;		_main
  1385 ;; This function uses a non-reentrant model
  1386 ;;
  1387                           
  1388                           
  1389                           ;psect for function _initPWM_T
  1390  068F                     _initPWM_T:	
  1391                           
  1392                           ;pwm.c: 17: TRISCbits.TRISC5 = 0;
  1393                           
  1394                           ;incstack = 0
  1395                           ; Regs used in _initPWM_T: [wreg]
  1396  068F  0021               	movlb	1	; select bank1
  1397  0690  128E               	bcf	14,5	;volatile
  1398                           
  1399                           ;pwm.c: 18: PWM1CONbits.PWM1EN = 1;
  1400  0691  002C               	movlb	12	; select bank12
  1401  0692  1793               	bsf	19,7	;volatile
  1402                           
  1403                           ;pwm.c: 19: PWM1CONbits.PWM1OE = 1;
  1404  0693  1713               	bsf	19,6	;volatile
  1405                           
  1406                           ;pwm.c: 20: PWM1CONbits.PWM1OUT = 0;
  1407  0694  1293               	bcf	19,5	;volatile
  1408                           
  1409                           ;pwm.c: 21: PWM1CONbits.PWM1POL = 0;
  1410  0695  1213               	bcf	19,4	;volatile
  1411                           
  1412                           ;pwm.c: 23: PWM1DCH = 125;
  1413  0696  307D               	movlw	125
  1414  0697  0092               	movwf	18	;volatile
  1415  0698  0008               	return
  1416  0699                     __end_of_initPWM_T:	
  1417                           
  1418                           	psect	text7
  1419  0689                     __ptext7:	
  1420 ;; *************** function _initT2 *****************
  1421 ;; Defined at:
  1422 ;;		line 10 in file "pwm.c"
  1423 ;; Parameters:    Size  Location     Type
  1424 ;;		None
  1425 ;; Auto vars:     Size  Location     Type
  1426 ;;		None
  1427 ;; Return value:  Size  Location     Type
  1428 ;;		None               void
  1429 ;; Registers used:
  1430 ;;		wreg
  1431 ;; Tracked objects:
  1432 ;;		On entry : 0/0
  1433 ;;		On exit  : 0/0
  1434 ;;		Unchanged: 0/0
  1435 ;; Data sizes:     COMMON   BANK0   BANK1
  1436 ;;      Params:         0       0       0
  1437 ;;      Locals:         0       0       0
  1438 ;;      Temps:          0       0       0
  1439 ;;      Totals:         0       0       0
  1440 ;;Total ram usage:        0 bytes
  1441 ;; Hardware stack levels used:    1
  1442 ;; This function calls:
  1443 ;;		Nothing
  1444 ;; This function is called by:
  1445 ;;		_main
  1446 ;; This function uses a non-reentrant model
  1447 ;;
  1448                           
  1449                           
  1450                           ;psect for function _initT2
  1451  0689                     _initT2:	
  1452                           
  1453                           ;pwm.c: 11: PR2 = 0b11111001;
  1454                           
  1455                           ;incstack = 0
  1456                           ; Regs used in _initT2: [wreg]
  1457  0689  30F9               	movlw	249
  1458  068A  0020               	movlb	0	; select bank0
  1459  068B  009B               	movwf	27	;volatile
  1460                           
  1461                           ;pwm.c: 12: T2CON = 0b00000111;
  1462  068C  3007               	movlw	7
  1463  068D  009C               	movwf	28	;volatile
  1464  068E  0008               	return
  1465  068F                     __end_of_initT2:	
  1466                           
  1467                           	psect	text8
  1468  06A3                     __ptext8:	
  1469 ;; *************** function _initMiBus *****************
  1470 ;; Defined at:
  1471 ;;		line 10 in file "miBus.c"
  1472 ;; Parameters:    Size  Location     Type
  1473 ;;		None
  1474 ;; Auto vars:     Size  Location     Type
  1475 ;;		None
  1476 ;; Return value:  Size  Location     Type
  1477 ;;		None               void
  1478 ;; Registers used:
  1479 ;;		None
  1480 ;; Tracked objects:
  1481 ;;		On entry : 0/0
  1482 ;;		On exit  : 0/0
  1483 ;;		Unchanged: 0/0
  1484 ;; Data sizes:     COMMON   BANK0   BANK1
  1485 ;;      Params:         0       0       0
  1486 ;;      Locals:         0       0       0
  1487 ;;      Temps:          0       0       0
  1488 ;;      Totals:         0       0       0
  1489 ;;Total ram usage:        0 bytes
  1490 ;; Hardware stack levels used:    1
  1491 ;; This function calls:
  1492 ;;		Nothing
  1493 ;; This function is called by:
  1494 ;;		_main
  1495 ;; This function uses a non-reentrant model
  1496 ;;
  1497                           
  1498                           
  1499                           ;psect for function _initMiBus
  1500  06A3                     _initMiBus:	
  1501                           
  1502                           ;miBus.c: 11: TRISCbits.TRISC0 = 1;
  1503                           
  1504                           ;incstack = 0
  1505                           ; Regs used in _initMiBus: []
  1506  06A3  0021               	movlb	1	; select bank1
  1507  06A4  140E               	bsf	14,0	;volatile
  1508                           
  1509                           ;miBus.c: 12: ANSELCbits.ANSC0 = 0;
  1510  06A5  0023               	movlb	3	; select bank3
  1511  06A6  100E               	bcf	14,0	;volatile
  1512                           
  1513                           ;miBus.c: 13: TRISCbits.TRISC1 = 1;
  1514  06A7  0021               	movlb	1	; select bank1
  1515  06A8  148E               	bsf	14,1	;volatile
  1516                           
  1517                           ;miBus.c: 14: ANSELCbits.ANSC1 = 0;
  1518  06A9  0023               	movlb	3	; select bank3
  1519  06AA  108E               	bcf	14,1	;volatile
  1520                           
  1521                           ;miBus.c: 15: TRISCbits.TRISC2 = 0;
  1522  06AB  0021               	movlb	1	; select bank1
  1523  06AC  110E               	bcf	14,2	;volatile
  1524                           
  1525                           ;miBus.c: 16: ANSELCbits.ANSC2 = 0;
  1526  06AD  0023               	movlb	3	; select bank3
  1527  06AE  110E               	bcf	14,2	;volatile
  1528                           
  1529                           ;miBus.c: 17: TRISAbits.TRISA1 = 1;
  1530  06AF  0021               	movlb	1	; select bank1
  1531  06B0  148C               	bsf	12,1	;volatile
  1532                           
  1533                           ;miBus.c: 18: ANSELAbits.ANSA1 = 0;
  1534  06B1  0023               	movlb	3	; select bank3
  1535  06B2  108C               	bcf	12,1	;volatile
  1536  06B3  0008               	return
  1537  06B4                     __end_of_initMiBus:	
  1538  007E                     btemp	set	126	;btemp
  1539  007E                     wtemp0	set	126


Data Sizes:
    Strings     0
    Constant    0
    Data        0
    BSS         0
    Persistent  0
    Stack       0

Auto Spaces:
    Space          Size  Autos    Used
    COMMON           14     13      13
    BANK0            80      4       4
    BANK1            32      0       0

Pointer List with Targets:

    ?___wmul	unsigned int  size(1) Largest target is 0

    ?___awdiv	int  size(1) Largest target is 0


Critical Paths under _main in COMMON

    _main->___awdiv
    ___awdiv->___wmul

Critical Paths under _main in BANK0

    _main->___awdiv

Critical Paths under _main in BANK1

    None.

Call Graph Tables:

 ---------------------------------------------------------------------------------
 (Depth) Function   	        Calls       Base Space   Used Autos Params    Refs
 ---------------------------------------------------------------------------------
 (0) _main                                                 2     2      0     828
                                             11 COMMON     2     2      0
                          _initMiBus
                             _initT2
                          _initPWM_T
                          _initPWM_V
                          _readMiBus
                         _writeMiBus
                            ___awdiv
                             ___wmul
 ---------------------------------------------------------------------------------
 (1) ___wmul                                               6     2      4      92
                                              0 COMMON     6     2      4
 ---------------------------------------------------------------------------------
 (1) ___awdiv                                              9     5      4     300
                                              6 COMMON     5     1      4
                                              0 BANK0      4     4      0
                             ___wmul (ARG)
 ---------------------------------------------------------------------------------
 (1) _writeMiBus                                           4     4      0     183
                                              0 COMMON     4     4      0
 ---------------------------------------------------------------------------------
 (1) _readMiBus                                            4     4      0     140
                                              0 COMMON     4     4      0
 ---------------------------------------------------------------------------------
 (1) _initPWM_V                                            0     0      0       0
 ---------------------------------------------------------------------------------
 (1) _initPWM_T                                            0     0      0       0
 ---------------------------------------------------------------------------------
 (1) _initT2                                               0     0      0       0
 ---------------------------------------------------------------------------------
 (1) _initMiBus                                            0     0      0       0
 ---------------------------------------------------------------------------------
 Estimated maximum stack depth 1
 ---------------------------------------------------------------------------------

 Call Graph Graphs:

 _main (ROOT)
   _initMiBus
   _initT2
   _initPWM_T
   _initPWM_V
   _readMiBus
   _writeMiBus
   ___awdiv
     ___wmul (ARG)
   ___wmul

 Address spaces:
Name               Size   Autos  Total    Cost      Usage
BIGRAM              70      0       0       0        0.0%
NULL                 0      0       0       0        0.0%
CODE                 0      0       0       0        0.0%
BITCOMMON            E      0       0       1        0.0%
BITSFR0              0      0       0       1        0.0%
SFR0                 0      0       0       1        0.0%
COMMON               E      D       D       2       92.9%
BITSFR1              0      0       0       2        0.0%
SFR1                 0      0       0       2        0.0%
BITSFR2              0      0       0       3        0.0%
SFR2                 0      0       0       3        0.0%
STACK                0      0       1       3        0.0%
BITSFR3              0      0       0       4        0.0%
SFR3                 0      0       0       4        0.0%
ABS                  0      0       0       4        0.0%
BITBANK0            50      0       0       5        0.0%
BITSFR4              0      0       0       5        0.0%
SFR4                 0      0       0       5        0.0%
BANK0               50      4       4       6        5.0%
BITSFR5              0      0       0       6        0.0%
SFR5                 0      0       0       6        0.0%
BITBANK1            20      0       0       7        0.0%
BITSFR6              0      0       0       7        0.0%
SFR6                 0      0       0       7        0.0%
BANK1               20      0       0       8        0.0%
BITSFR7              0      0       0       8        0.0%
SFR7                 0      0       0       8        0.0%
BITSFR8              0      0       0       9        0.0%
SFR8                 0      0       0       9        0.0%
DATA                 0      0       0       9        0.0%
BITSFR9              0      0       0      10        0.0%
SFR9                 0      0       0      10        0.0%
BITSFR10             0      0       0      11        0.0%
SFR10                0      0       0      11        0.0%
BITSFR11             0      0       0      12        0.0%
SFR11                0      0       0      12        0.0%
BITSFR12             0      0       0      13        0.0%
SFR12                0      0       0      13        0.0%
BITSFR13             0      0       0      14        0.0%
SFR13                0      0       0      14        0.0%
BITSFR14             0      0       0      15        0.0%
SFR14                0      0       0      15        0.0%
BITSFR15             0      0       0      16        0.0%
SFR15                0      0       0      16        0.0%
BITSFR16             0      0       0      17        0.0%
SFR16                0      0       0      17        0.0%
BITSFR17             0      0       0      18        0.0%
SFR17                0      0       0      18        0.0%
BITSFR18             0      0       0      19        0.0%
SFR18                0      0       0      19        0.0%
BITSFR19             0      0       0      20        0.0%
SFR19                0      0       0      20        0.0%
BITSFR20             0      0       0      21        0.0%
SFR20                0      0       0      21        0.0%
BITSFR21             0      0       0      22        0.0%
SFR21                0      0       0      22        0.0%
BITSFR22             0      0       0      23        0.0%
SFR22                0      0       0      23        0.0%
BITSFR23             0      0       0      24        0.0%
SFR23                0      0       0      24        0.0%
BITSFR24             0      0       0      25        0.0%
SFR24                0      0       0      25        0.0%
BITSFR25             0      0       0      26        0.0%
SFR25                0      0       0      26        0.0%
BITSFR26             0      0       0      27        0.0%
SFR26                0      0       0      27        0.0%
BITSFR27             0      0       0      28        0.0%
SFR27                0      0       0      28        0.0%
BITSFR28             0      0       0      29        0.0%
SFR28                0      0       0      29        0.0%
BITSFR29             0      0       0      30        0.0%
SFR29                0      0       0      30        0.0%
BITSFR30             0      0       0      31        0.0%
SFR30                0      0       0      31        0.0%
BITSFR31             0      0       0      32        0.0%
SFR31                0      0       0      32        0.0%


Microchip Technology PIC Macro Assembler V1.21 build 54009 
Symbol Table                                                                                   Sun Oct 20 05:27:04 2013

            __CFG_CP$OFF 0000                       l55 06D8                       l72 0705  
                     l66 06EE                       l58 06DB                       l90 07DF  
                     l82 07B7                       l69 06F1                       l95 07EE  
                     l87 07C6                       l79 07AE                       l98 07F7  
           ___awdiv@sign 0021      ___wmul@multiplicand 0072                      l477 06BC  
                    l717 06B6                      l735 06D3                      l815 0769  
                    l753 070D                      l737 06D4                      l841 07A0  
                    l833 078F                      l825 0771                      l809 075E  
                    l739 06E9                      l827 077D                      l773 07C1  
                    l837 0798                      l861 0720                      l873 074B  
                    l787 07E9                      l875 0750                      l869 072D  
                    _PR2 001B                      u425 06BD                      u435 06C2  
                    u534 06FF                      u535 06FE                      u624 07D2  
                    u625 07D1                      u725 0774                      u745 077E  
                    u817 0717                      u827 07B3                      u755 0788  
                    u837 07CB                      u765 0790                      u847 07F3  
                    u857 06DF                      u867 06F5                      wreg 0009  
                   _main 0712                     btemp 007E                     start 0001  
                  ?_main 0070          __end_of___awdiv 07A7            __CFG_WDTE$OFF 0000  
        ___awdiv@divisor 0076                    _T2CON 001C          ___awdiv@counter 0020  
                  status 0003                    wtemp0 007E           __CFG_MCLRE$OFF 0000  
        __initialization 07FE             __end_of_main 0753                   ??_main 007B  
       ___awdiv@dividend 0078                   ___wmul 06B4                ??___awdiv 007A  
                 _initT2 0689         ___awdiv@quotient 0022  __end_of__initialization 07FE  
         __pcstackCOMMON 0070       __size_of_initPWM_T 000A       __size_of_initPWM_V 000A  
     __size_of_initMiBus 0011       __size_of_readMiBus 0041               __pmaintext 0712  
                ?___wmul 0070                  ?_initT2 0070                  _PWM1DCH 0612  
                _PWM2DCH 0615                  ___awdiv 0753          __size_of___wmul 001D  
        __size_of_initT2 0006        __end_of_initPWM_T 0699        __end_of_initPWM_V 06A3  
                __ptext0 0000                  __ptext1 06B4                  __ptext2 0753  
                __ptext3 07A7                  __ptext4 06D1                  __ptext5 0699  
                __ptext6 068F                  __ptext7 0689                  __ptext8 06A3  
      __end_of_initMiBus 06B4        __end_of_readMiBus 0712     end_of_initialization 07FE  
              _PORTAbits 000C                _PORTCbits 000E         __CFG_FOSC$INTOSC 0000  
              _TRISAbits 008C                _TRISCbits 008E               _writeMiBus 07A7  
         __end_of___wmul 06D1           __end_of_initT2 068F      start_initialization 07FE  
             readMiBus@i 0073                 ??___wmul 0074                 ??_initT2 0070  
          __pcstackBANK0 0020                 ?___awdiv 0076              ?_writeMiBus 0070  
              _initPWM_T 068F                _initPWM_V 0699                _initMiBus 06A3  
              _readMiBus 06D1            readMiBus@data 0072           ___wmul@product 0074  
            writeMiBus@i 0073        ___wmul@multiplier 0070               ?_initPWM_T 0070  
             ?_initPWM_V 0070               ?_initMiBus 0070               ?_readMiBus 0070  
    __size_of_writeMiBus 0057         __size_of___awdiv 0054               _ANSELAbits 018C  
             _ANSELCbits 018E            __size_of_main 0041           writeMiBus@data 0072  
               main@data 007C              ??_initPWM_T 0070              ??_initPWM_V 0070  
            _PWM1CONbits 0613              ??_initMiBus 0070              _PWM2CONbits 0616  
            ??_readMiBus 0070               _OSCCONbits 0099             ??_writeMiBus 0070  
     __end_of_writeMiBus 07FE  
