

Microchip Technology PIC LITE Macro Assembler V1.21 build 54009 
                                                                                               Sun Oct 20 04:40:43 2013

Microchip Technology Omniscient Code Generator (Lite mode) build 54009
     1                           	processor	16F1503
     2                           	opt	pw 120
     3                           	opt	lm
     4                           	psect	text0,local,class=CODE,merge=1,delta=2
     5                           	psect	cinit,global,class=CODE,merge=1,delta=2
     6                           	psect	cstackCOMMON,global,class=COMMON,space=1,delta=1
     7                           	psect	cstackBANK0,global,class=BANK0,space=1,delta=1
     8                           	psect	maintext,global,class=CODE,merge=1,split=1,delta=2
     9                           	psect	text1,local,class=CODE,merge=1,delta=2
    10                           	psect	text2,local,class=CODE,merge=1,delta=2
    11                           	psect	text3,local,class=CODE,merge=1,delta=2
    12                           	psect	text4,local,class=CODE,merge=1,delta=2
    13                           	psect	text5,local,class=CODE,merge=1,delta=2
    14                           	psect	text6,local,class=CODE,merge=1,delta=2
    15                           	psect	text7,local,class=CODE,merge=1,delta=2
    16                           	dabs	1,0x7E,2
    17  0000                     	;# 
    18  0001                     	;# 
    19  0002                     	;# 
    20  0003                     	;# 
    21  0004                     	;# 
    22  0005                     	;# 
    23  0006                     	;# 
    24  0007                     	;# 
    25  0008                     	;# 
    26  0009                     	;# 
    27  000A                     	;# 
    28  000B                     	;# 
    29  000C                     	;# 
    30  000E                     	;# 
    31  0011                     	;# 
    32  0012                     	;# 
    33  0013                     	;# 
    34  0015                     	;# 
    35  0016                     	;# 
    36  0016                     	;# 
    37  0017                     	;# 
    38  0018                     	;# 
    39  0019                     	;# 
    40  001A                     	;# 
    41  001B                     	;# 
    42  001C                     	;# 
    43  008C                     	;# 
    44  008E                     	;# 
    45  0091                     	;# 
    46  0092                     	;# 
    47  0093                     	;# 
    48  0095                     	;# 
    49  0096                     	;# 
    50  0097                     	;# 
    51  0099                     	;# 
    52  009A                     	;# 
    53  009B                     	;# 
    54  009B                     	;# 
    55  009C                     	;# 
    56  009D                     	;# 
    57  009E                     	;# 
    58  009F                     	;# 
    59  010C                     	;# 
    60  010E                     	;# 
    61  0111                     	;# 
    62  0112                     	;# 
    63  0113                     	;# 
    64  0114                     	;# 
    65  0115                     	;# 
    66  0116                     	;# 
    67  0117                     	;# 
    68  0118                     	;# 
    69  0119                     	;# 
    70  011D                     	;# 
    71  018C                     	;# 
    72  018E                     	;# 
    73  0191                     	;# 
    74  0191                     	;# 
    75  0192                     	;# 
    76  0193                     	;# 
    77  0193                     	;# 
    78  0194                     	;# 
    79  0195                     	;# 
    80  0196                     	;# 
    81  0197                     	;# 
    82  020C                     	;# 
    83  0211                     	;# 
    84  0211                     	;# 
    85  0212                     	;# 
    86  0212                     	;# 
    87  0213                     	;# 
    88  0213                     	;# 
    89  0214                     	;# 
    90  0214                     	;# 
    91  0215                     	;# 
    92  0215                     	;# 
    93  0215                     	;# 
    94  0216                     	;# 
    95  0216                     	;# 
    96  0217                     	;# 
    97  0217                     	;# 
    98  0391                     	;# 
    99  0392                     	;# 
   100  0393                     	;# 
   101  0498                     	;# 
   102  0498                     	;# 
   103  0499                     	;# 
   104  049A                     	;# 
   105  049B                     	;# 
   106  049B                     	;# 
   107  049C                     	;# 
   108  049E                     	;# 
   109  049F                     	;# 
   110  0611                     	;# 
   111  0612                     	;# 
   112  0613                     	;# 
   113  0613                     	;# 
   114  0614                     	;# 
   115  0615                     	;# 
   116  0616                     	;# 
   117  0616                     	;# 
   118  0617                     	;# 
   119  0618                     	;# 
   120  0619                     	;# 
   121  0619                     	;# 
   122  061A                     	;# 
   123  061B                     	;# 
   124  061C                     	;# 
   125  061C                     	;# 
   126  0691                     	;# 
   127  0692                     	;# 
   128  0693                     	;# 
   129  0694                     	;# 
   130  0695                     	;# 
   131  0F0F                     	;# 
   132  0F10                     	;# 
   133  0F11                     	;# 
   134  0F12                     	;# 
   135  0F13                     	;# 
   136  0F14                     	;# 
   137  0F15                     	;# 
   138  0F16                     	;# 
   139  0F17                     	;# 
   140  0F18                     	;# 
   141  0F19                     	;# 
   142  0F1A                     	;# 
   143  0F1B                     	;# 
   144  0F1C                     	;# 
   145  0F1D                     	;# 
   146  0F1E                     	;# 
   147  0F1F                     	;# 
   148  0FE3                     	;# 
   149  0FE4                     	;# 
   150  0FE5                     	;# 
   151  0FE6                     	;# 
   152  0FE7                     	;# 
   153  0FE8                     	;# 
   154  0FE9                     	;# 
   155  0FEA                     	;# 
   156  0FEB                     	;# 
   157  0FED                     	;# 
   158  0FEE                     	;# 
   159  0FEF                     	;# 
   160  0000                     	;# 
   161  0001                     	;# 
   162  0002                     	;# 
   163  0003                     	;# 
   164  0004                     	;# 
   165  0005                     	;# 
   166  0006                     	;# 
   167  0007                     	;# 
   168  0008                     	;# 
   169  0009                     	;# 
   170  000A                     	;# 
   171  000B                     	;# 
   172  000C                     	;# 
   173  000E                     	;# 
   174  0011                     	;# 
   175  0012                     	;# 
   176  0013                     	;# 
   177  0015                     	;# 
   178  0016                     	;# 
   179  0016                     	;# 
   180  0017                     	;# 
   181  0018                     	;# 
   182  0019                     	;# 
   183  001A                     	;# 
   184  001B                     	;# 
   185  001C                     	;# 
   186  008C                     	;# 
   187  008E                     	;# 
   188  0091                     	;# 
   189  0092                     	;# 
   190  0093                     	;# 
   191  0095                     	;# 
   192  0096                     	;# 
   193  0097                     	;# 
   194  0099                     	;# 
   195  009A                     	;# 
   196  009B                     	;# 
   197  009B                     	;# 
   198  009C                     	;# 
   199  009D                     	;# 
   200  009E                     	;# 
   201  009F                     	;# 
   202  010C                     	;# 
   203  010E                     	;# 
   204  0111                     	;# 
   205  0112                     	;# 
   206  0113                     	;# 
   207  0114                     	;# 
   208  0115                     	;# 
   209  0116                     	;# 
   210  0117                     	;# 
   211  0118                     	;# 
   212  0119                     	;# 
   213  011D                     	;# 
   214  018C                     	;# 
   215  018E                     	;# 
   216  0191                     	;# 
   217  0191                     	;# 
   218  0192                     	;# 
   219  0193                     	;# 
   220  0193                     	;# 
   221  0194                     	;# 
   222  0195                     	;# 
   223  0196                     	;# 
   224  0197                     	;# 
   225  020C                     	;# 
   226  0211                     	;# 
   227  0211                     	;# 
   228  0212                     	;# 
   229  0212                     	;# 
   230  0213                     	;# 
   231  0213                     	;# 
   232  0214                     	;# 
   233  0214                     	;# 
   234  0215                     	;# 
   235  0215                     	;# 
   236  0215                     	;# 
   237  0216                     	;# 
   238  0216                     	;# 
   239  0217                     	;# 
   240  0217                     	;# 
   241  0391                     	;# 
   242  0392                     	;# 
   243  0393                     	;# 
   244  0498                     	;# 
   245  0498                     	;# 
   246  0499                     	;# 
   247  049A                     	;# 
   248  049B                     	;# 
   249  049B                     	;# 
   250  049C                     	;# 
   251  049E                     	;# 
   252  049F                     	;# 
   253  0611                     	;# 
   254  0612                     	;# 
   255  0613                     	;# 
   256  0613                     	;# 
   257  0614                     	;# 
   258  0615                     	;# 
   259  0616                     	;# 
   260  0616                     	;# 
   261  0617                     	;# 
   262  0618                     	;# 
   263  0619                     	;# 
   264  0619                     	;# 
   265  061A                     	;# 
   266  061B                     	;# 
   267  061C                     	;# 
   268  061C                     	;# 
   269  0691                     	;# 
   270  0692                     	;# 
   271  0693                     	;# 
   272  0694                     	;# 
   273  0695                     	;# 
   274  0F0F                     	;# 
   275  0F10                     	;# 
   276  0F11                     	;# 
   277  0F12                     	;# 
   278  0F13                     	;# 
   279  0F14                     	;# 
   280  0F15                     	;# 
   281  0F16                     	;# 
   282  0F17                     	;# 
   283  0F18                     	;# 
   284  0F19                     	;# 
   285  0F1A                     	;# 
   286  0F1B                     	;# 
   287  0F1C                     	;# 
   288  0F1D                     	;# 
   289  0F1E                     	;# 
   290  0F1F                     	;# 
   291  0FE3                     	;# 
   292  0FE4                     	;# 
   293  0FE5                     	;# 
   294  0FE6                     	;# 
   295  0FE7                     	;# 
   296  0FE8                     	;# 
   297  0FE9                     	;# 
   298  0FEA                     	;# 
   299  0FEB                     	;# 
   300  0FED                     	;# 
   301  0FEE                     	;# 
   302  0FEF                     	;# 
   303  0000                     	;# 
   304  0001                     	;# 
   305  0002                     	;# 
   306  0003                     	;# 
   307  0004                     	;# 
   308  0005                     	;# 
   309  0006                     	;# 
   310  0007                     	;# 
   311  0008                     	;# 
   312  0009                     	;# 
   313  000A                     	;# 
   314  000B                     	;# 
   315  000C                     	;# 
   316  000E                     	;# 
   317  0011                     	;# 
   318  0012                     	;# 
   319  0013                     	;# 
   320  0015                     	;# 
   321  0016                     	;# 
   322  0016                     	;# 
   323  0017                     	;# 
   324  0018                     	;# 
   325  0019                     	;# 
   326  001A                     	;# 
   327  001B                     	;# 
   328  001C                     	;# 
   329  008C                     	;# 
   330  008E                     	;# 
   331  0091                     	;# 
   332  0092                     	;# 
   333  0093                     	;# 
   334  0095                     	;# 
   335  0096                     	;# 
   336  0097                     	;# 
   337  0099                     	;# 
   338  009A                     	;# 
   339  009B                     	;# 
   340  009B                     	;# 
   341  009C                     	;# 
   342  009D                     	;# 
   343  009E                     	;# 
   344  009F                     	;# 
   345  010C                     	;# 
   346  010E                     	;# 
   347  0111                     	;# 
   348  0112                     	;# 
   349  0113                     	;# 
   350  0114                     	;# 
   351  0115                     	;# 
   352  0116                     	;# 
   353  0117                     	;# 
   354  0118                     	;# 
   355  0119                     	;# 
   356  011D                     	;# 
   357  018C                     	;# 
   358  018E                     	;# 
   359  0191                     	;# 
   360  0191                     	;# 
   361  0192                     	;# 
   362  0193                     	;# 
   363  0193                     	;# 
   364  0194                     	;# 
   365  0195                     	;# 
   366  0196                     	;# 
   367  0197                     	;# 
   368  020C                     	;# 
   369  0211                     	;# 
   370  0211                     	;# 
   371  0212                     	;# 
   372  0212                     	;# 
   373  0213                     	;# 
   374  0213                     	;# 
   375  0214                     	;# 
   376  0214                     	;# 
   377  0215                     	;# 
   378  0215                     	;# 
   379  0215                     	;# 
   380  0216                     	;# 
   381  0216                     	;# 
   382  0217                     	;# 
   383  0217                     	;# 
   384  0391                     	;# 
   385  0392                     	;# 
   386  0393                     	;# 
   387  0498                     	;# 
   388  0498                     	;# 
   389  0499                     	;# 
   390  049A                     	;# 
   391  049B                     	;# 
   392  049B                     	;# 
   393  049C                     	;# 
   394  049E                     	;# 
   395  049F                     	;# 
   396  0611                     	;# 
   397  0612                     	;# 
   398  0613                     	;# 
   399  0613                     	;# 
   400  0614                     	;# 
   401  0615                     	;# 
   402  0616                     	;# 
   403  0616                     	;# 
   404  0617                     	;# 
   405  0618                     	;# 
   406  0619                     	;# 
   407  0619                     	;# 
   408  061A                     	;# 
   409  061B                     	;# 
   410  061C                     	;# 
   411  061C                     	;# 
   412  0691                     	;# 
   413  0692                     	;# 
   414  0693                     	;# 
   415  0694                     	;# 
   416  0695                     	;# 
   417  0F0F                     	;# 
   418  0F10                     	;# 
   419  0F11                     	;# 
   420  0F12                     	;# 
   421  0F13                     	;# 
   422  0F14                     	;# 
   423  0F15                     	;# 
   424  0F16                     	;# 
   425  0F17                     	;# 
   426  0F18                     	;# 
   427  0F19                     	;# 
   428  0F1A                     	;# 
   429  0F1B                     	;# 
   430  0F1C                     	;# 
   431  0F1D                     	;# 
   432  0F1E                     	;# 
   433  0F1F                     	;# 
   434  0FE3                     	;# 
   435  0FE4                     	;# 
   436  0FE5                     	;# 
   437  0FE6                     	;# 
   438  0FE7                     	;# 
   439  0FE8                     	;# 
   440  0FE9                     	;# 
   441  0FEA                     	;# 
   442  0FEB                     	;# 
   443  0FED                     	;# 
   444  0FEE                     	;# 
   445  0FEF                     	;# 
   446  000C                     _PORTAbits	set	12
   447  000E                     _PORTCbits	set	14
   448  009B                     _ADRES	set	155
   449  009D                     _ADCON0	set	157
   450  009D                     _ADCON0bits	set	157
   451  009E                     _ADCON1	set	158
   452  0099                     _OSCCONbits	set	153
   453  008C                     _TRISAbits	set	140
   454  008E                     _TRISCbits	set	142
   455  018C                     _ANSELAbits	set	396
   456  018E                     _ANSELCbits	set	398
   457                           
   458                           	psect	text0
   459  0000                     __ptext0:	
   460                           
   461                           ;psect for function _initADC
   462                           ; #config settings
   463  0000                     
   464                           	psect	cinit
   465  07FE                     start_initialization:	
   466  07FE                     __initialization:	
   467  07FE                     end_of_initialization:	
   468                           ;End of C runtime variable initialization code
   469                           
   470  07FE                     __end_of__initialization:	
   471  07FE  0020               	movlb	0
   472  07FF  2F10               	ljmp	_main	;jump to C main() function
   473                           
   474                           	psect	cstackCOMMON
   475  0070                     __pcstackCOMMON:	
   476  0070                     ?_initMiBus:	
   477  0070                     ??_initMiBus:	
   478                           ; 0 bytes @ 0x0
   479                           
   480  0070                     ??_readMiBus:	
   481                           ; 0 bytes @ 0x0
   482                           
   483  0070                     ?_writeMiBus:	
   484                           ; 0 bytes @ 0x0
   485                           
   486  0070                     ??_writeMiBus:	
   487                           ; 0 bytes @ 0x0
   488                           
   489  0070                     ?_initADC:	
   490                           ; 0 bytes @ 0x0
   491                           
   492  0070                     ??_initADC:	
   493                           ; 0 bytes @ 0x0
   494                           
   495  0070                     ??_readADC:	
   496                           ; 0 bytes @ 0x0
   497                           
   498  0070                     ?_readMiBus:	
   499                           ; 0 bytes @ 0x0
   500                           
   501  0070                     ?_readADC:	
   502                           ; 1 bytes @ 0x0
   503                           
   504  0070                     ?_main:	
   505                           ; 1 bytes @ 0x0
   506                           
   507  0070                     ?___wmul:	
   508                           ; 2 bytes @ 0x0
   509                           
   510  0070                     ___wmul@multiplier:	
   511                           ; 2 bytes @ 0x0
   512                           
   513                           
   514                           ; 2 bytes @ 0x0
   515  0070                     	ds	2
   516  0072                     readMiBus@data:	
   517  0072                     writeMiBus@data:	
   518                           ; 1 bytes @ 0x2
   519                           
   520  0072                     readADC@value:	
   521                           ; 1 bytes @ 0x2
   522                           
   523  0072                     ___wmul@multiplicand:	
   524                           ; 2 bytes @ 0x2
   525                           
   526                           
   527                           ; 2 bytes @ 0x2
   528  0072                     	ds	1
   529  0073                     readMiBus@i:	
   530  0073                     writeMiBus@i:	
   531                           ; 1 bytes @ 0x3
   532                           
   533                           
   534                           ; 1 bytes @ 0x3
   535  0073                     	ds	1
   536  0074                     ??___wmul:	
   537  0074                     ___wmul@product:	
   538                           ; 0 bytes @ 0x4
   539                           
   540                           
   541                           ; 2 bytes @ 0x4
   542  0074                     	ds	2
   543  0076                     ?___awdiv:	
   544  0076                     ___awdiv@divisor:	
   545                           ; 2 bytes @ 0x6
   546                           
   547                           
   548                           ; 2 bytes @ 0x6
   549  0076                     	ds	2
   550  0078                     ___awdiv@dividend:	
   551                           
   552                           ; 2 bytes @ 0x8
   553  0078                     	ds	2
   554  007A                     ??___awdiv:	
   555                           
   556                           ; 0 bytes @ 0xA
   557  007A                     	ds	1
   558  007B                     main@value:	
   559                           
   560                           ; 1 bytes @ 0xB
   561  007B                     	ds	1
   562  007C                     main@data:	
   563                           
   564                           ; 1 bytes @ 0xC
   565  007C                     	ds	1
   566                           
   567                           	psect	cstackBANK0
   568  0020                     __pcstackBANK0:	
   569  0020                     ___awdiv@counter:	
   570                           
   571                           ; 1 bytes @ 0x0
   572  0020                     	ds	1
   573  0021                     ___awdiv@sign:	
   574                           
   575                           ; 1 bytes @ 0x1
   576  0021                     	ds	1
   577  0022                     ___awdiv@quotient:	
   578                           
   579                           ; 2 bytes @ 0x2
   580  0022                     	ds	2
   581  0024                     ??_main:	
   582                           
   583                           ; 0 bytes @ 0x4
   584  0024                     	ds	5
   585                           
   586                           	psect	maintext
   587  0710                     __pmaintext:	
   588 ;;
   589 ;;Main: autosize = 0, tempsize = 5, incstack = 0, save=0
   590 ;;
   591 ;; *************** function _main *****************
   592 ;; Defined at:
   593 ;;		line 31 in file "main.c"
   594 ;; Parameters:    Size  Location     Type
   595 ;;		None
   596 ;; Auto vars:     Size  Location     Type
   597 ;;  data            1   12[COMMON] unsigned char 
   598 ;;  value           1   11[COMMON] unsigned char 
   599 ;; Return value:  Size  Location     Type
   600 ;;                  2   41[COMMON] int 
   601 ;; Registers used:
   602 ;;		wreg, status,2, status,0, pclath, cstack
   603 ;; Tracked objects:
   604 ;;		On entry : 17F/0
   605 ;;		On exit  : 0/0
   606 ;;		Unchanged: 0/0
   607 ;; Data sizes:     COMMON   BANK0   BANK1
   608 ;;      Params:         0       0       0
   609 ;;      Locals:         2       0       0
   610 ;;      Temps:          0       5       0
   611 ;;      Totals:         2       5       0
   612 ;;Total ram usage:        7 bytes
   613 ;; Hardware stack levels required when called:    1
   614 ;; This function calls:
   615 ;;		_initADC
   616 ;;		_readADC
   617 ;;		_initMiBus
   618 ;;		_readMiBus
   619 ;;		_writeMiBus
   620 ;;		___awdiv
   621 ;;		___wmul
   622 ;; This function is called by:
   623 ;;		Startup code after reset
   624 ;; This function uses a non-reentrant model
   625 ;;
   626                           
   627                           
   628                           ;psect for function _main
   629  0710                     _main:	
   630                           
   631                           ;main.c: 34: OSCCONbits.IRCF = 0b1111;
   632                           
   633                           ;incstack = 0
   634                           ; Regs used in _main: [wreg+status,2+status,0+pclath+cstack]
   635  0710  3078               	movlw	120
   636  0711  0021               	movlb	1	; select bank1
   637  0712  0499               	iorwf	25,f	;volatile
   638                           
   639                           ;main.c: 35: _delay((unsigned long)((10)*(16000000/4000000.0)));
   640  0713  300D               	movlw	13
   641  0714  0020               	movlb	0	; select bank0
   642  0715  00A4               	movwf	??_main
   643  0716                     u817:	
   644  0716  0BA4               	decfsz	??_main,f
   645  0717  2F16               	goto	u817
   646                           
   647                           ;main.c: 38: initMiBus();
   648  0718  2689               	fcall	_initMiBus
   649                           
   650                           ;main.c: 41: initADC();
   651  0719  267F               	fcall	_initADC
   652                           
   653                           ;main.c: 44: TRISAbits.TRISA5 = 1;
   654  071A  0021               	movlb	1	; select bank1
   655  071B  168C               	bsf	12,5	;volatile
   656                           
   657                           ;main.c: 47: unsigned char data = 0;
   658  071C  01FC               	clrf	main@data
   659                           
   660                           ;main.c: 48: unsigned char value = 0;
   661  071D  01FB               	clrf	main@value
   662  071E  2F21               	goto	l851
   663  071F                     l859:	
   664                           
   665                           ;main.c: 62: writeMiBus(data);
   666  071F  087C               	movf	main@data,w
   667  0720                     L1:	
   668  0720  27A7               	fcall	_writeMiBus
   669  0721                     l851:	
   670                           ;main.c: 50: while(1) {
   671                           
   672                           ;main.c: 65: } else {
   673                           
   674                           
   675                           ;main.c: 52: data = readMiBus();
   676  0721  26CF               	fcall	_readMiBus
   677  0722  0020               	movlb	0	; select bank0
   678  0723  00A4               	movwf	??_main
   679  0724  0824               	movf	??_main,w
   680  0725  00FC               	movwf	main@data
   681                           
   682                           ;main.c: 55: value = readADC();
   683  0726  269A               	fcall	_readADC
   684  0727  0020               	movlb	0	; select bank0
   685  0728  00A4               	movwf	??_main
   686  0729  0824               	movf	??_main,w
   687  072A  00FB               	movwf	main@value
   688                           
   689                           ;main.c: 58: data = ((value * (data - 1)) / 255) + 1;
   690  072B  30FF               	movlw	255
   691  072C  00F6               	movwf	?___awdiv
   692  072D  3000               	movlw	0
   693  072E  00F7               	movwf	?___awdiv+1
   694  072F  087C               	movf	main@data,w
   695  0730  3EFF               	addlw	255
   696  0731  00F0               	movwf	?___wmul
   697  0732  30FF               	movlw	255
   698  0733  1803               	skipnc
   699  0734  3000               	movlw	0
   700  0735  00F1               	movwf	?___wmul+1
   701  0736  087B               	movf	main@value,w
   702  0737  00A4               	movwf	??_main
   703  0738  01A5               	clrf	??_main+1
   704  0739  0824               	movf	??_main,w
   705  073A  00F2               	movwf	?___wmul+2
   706  073B  0825               	movf	??_main+1,w
   707  073C  00F3               	movwf	?___wmul+3
   708  073D  26B2               	fcall	___wmul
   709  073E  0871               	movf	?___wmul+1,w
   710  073F  01F9               	clrf	?___awdiv+3
   711  0740  07F9               	addwf	?___awdiv+3,f
   712  0741  0870               	movf	?___wmul,w
   713  0742  01F8               	clrf	?___awdiv+2
   714  0743  07F8               	addwf	?___awdiv+2,f
   715  0744  2753               	fcall	___awdiv
   716  0745  0876               	movf	?___awdiv,w
   717  0746  0020               	movlb	0	; select bank0
   718  0747  00A6               	movwf	??_main+2
   719  0748  0877               	movf	?___awdiv+1,w
   720  0749  00A7               	movwf	??_main+3
   721  074A  0A26               	incf	??_main+2,w
   722  074B  00A8               	movwf	??_main+4
   723  074C  0828               	movf	??_main+4,w
   724  074D  00FC               	movwf	main@data
   725                           
   726                           ;main.c: 61: if (PORTAbits.RA5 == 0) {
   727  074E  1E8C               	btfss	12,5	;volatile
   728  074F  2F1F               	goto	l859
   729                           
   730                           ;main.c: 66: writeMiBus(256 - data);
   731  0750  037C               	decf	main@data,w
   732  0751  3AFF               	xorlw	255
   733  0752  2F20               	goto	L1
   734  0753                     __end_of_main:	
   735                           
   736                           	psect	text1
   737  06B2                     __ptext1:	
   738 ;; *************** function ___wmul *****************
   739 ;; Defined at:
   740 ;;		line 3 in file "/opt/microchip/xc8/v1.21/sources/pic/wmul.c"
   741 ;; Parameters:    Size  Location     Type
   742 ;;  multiplier      2    0[COMMON] unsigned int 
   743 ;;  multiplicand    2    2[COMMON] unsigned int 
   744 ;; Auto vars:     Size  Location     Type
   745 ;;  product         2    4[COMMON] unsigned int 
   746 ;; Return value:  Size  Location     Type
   747 ;;                  2    0[COMMON] unsigned int 
   748 ;; Registers used:
   749 ;;		wreg, status,2, status,0
   750 ;; Tracked objects:
   751 ;;		On entry : 0/0
   752 ;;		On exit  : 0/0
   753 ;;		Unchanged: 0/0
   754 ;; Data sizes:     COMMON   BANK0   BANK1
   755 ;;      Params:         4       0       0
   756 ;;      Locals:         2       0       0
   757 ;;      Temps:          0       0       0
   758 ;;      Totals:         6       0       0
   759 ;;Total ram usage:        6 bytes
   760 ;; Hardware stack levels used:    1
   761 ;; This function calls:
   762 ;;		Nothing
   763 ;; This function is called by:
   764 ;;		_main
   765 ;; This function uses a non-reentrant model
   766 ;;
   767                           
   768                           
   769                           ;psect for function ___wmul
   770  06B2                     ___wmul:	
   771                           
   772                           ;incstack = 0
   773                           ; Regs used in ___wmul: [wreg+status,2+status,0]
   774  06B2  01F4               	clrf	___wmul@product
   775  06B3  01F5               	clrf	___wmul@product+1
   776  06B4                     l709:	
   777  06B4  1C70               	btfss	___wmul@multiplier,0
   778  06B5  2EBA               	goto	l467
   779  06B6  0872               	movf	___wmul@multiplicand,w
   780  06B7  07F4               	addwf	___wmul@product,f
   781  06B8  0873               	movf	___wmul@multiplicand+1,w
   782  06B9  3DF5               	addwfc	___wmul@product+1,f
   783  06BA                     l467:	
   784  06BA  3001               	movlw	1
   785  06BB                     u435:	
   786  06BB  35F2               	lslf	___wmul@multiplicand,f
   787  06BC  0DF3               	rlf	___wmul@multiplicand+1,f
   788  06BD  0B89               	decfsz	9,f
   789  06BE  2EBB               	goto	u435
   790  06BF  3001               	movlw	1
   791  06C0                     u445:	
   792  06C0  36F1               	lsrf	___wmul@multiplier+1,f
   793  06C1  0CF0               	rrf	___wmul@multiplier,f
   794  06C2  0B89               	decfsz	9,f
   795  06C3  2EC0               	goto	u445
   796  06C4  0871               	movf	___wmul@multiplier+1,w
   797  06C5  0470               	iorwf	___wmul@multiplier,w
   798  06C6  1D03               	skipz
   799  06C7  2EB4               	goto	l709
   800  06C8  0875               	movf	___wmul@product+1,w
   801  06C9  01F1               	clrf	?___wmul+1
   802  06CA  07F1               	addwf	?___wmul+1,f
   803  06CB  0874               	movf	___wmul@product,w
   804  06CC  01F0               	clrf	?___wmul
   805  06CD  07F0               	addwf	?___wmul,f
   806  06CE  0008               	return
   807  06CF                     __end_of___wmul:	
   808                           
   809                           	psect	text2
   810  0753                     __ptext2:	
   811 ;; *************** function ___awdiv *****************
   812 ;; Defined at:
   813 ;;		line 5 in file "/opt/microchip/xc8/v1.21/sources/pic/awdiv.c"
   814 ;; Parameters:    Size  Location     Type
   815 ;;  divisor         2    6[COMMON] int 
   816 ;;  dividend        2    8[COMMON] int 
   817 ;; Auto vars:     Size  Location     Type
   818 ;;  quotient        2    2[BANK0 ] int 
   819 ;;  sign            1    1[BANK0 ] unsigned char 
   820 ;;  counter         1    0[BANK0 ] unsigned char 
   821 ;; Return value:  Size  Location     Type
   822 ;;                  2    6[COMMON] int 
   823 ;; Registers used:
   824 ;;		wreg, status,2, status,0
   825 ;; Tracked objects:
   826 ;;		On entry : 0/0
   827 ;;		On exit  : 0/0
   828 ;;		Unchanged: 0/0
   829 ;; Data sizes:     COMMON   BANK0   BANK1
   830 ;;      Params:         4       0       0
   831 ;;      Locals:         0       4       0
   832 ;;      Temps:          1       0       0
   833 ;;      Totals:         5       4       0
   834 ;;Total ram usage:        9 bytes
   835 ;; Hardware stack levels used:    1
   836 ;; This function calls:
   837 ;;		Nothing
   838 ;; This function is called by:
   839 ;;		_main
   840 ;; This function uses a non-reentrant model
   841 ;;
   842                           
   843                           
   844                           ;psect for function ___awdiv
   845  0753                     ___awdiv:	
   846                           
   847                           ;incstack = 0
   848                           ; Regs used in ___awdiv: [wreg+status,2+status,0]
   849  0753  0020               	movlb	0	; select bank0
   850  0754  01A1               	clrf	___awdiv@sign
   851  0755  1FF7               	btfss	___awdiv@divisor+1,7
   852  0756  2F5E               	goto	l801
   853  0757  09F6               	comf	___awdiv@divisor,f
   854  0758  09F7               	comf	___awdiv@divisor+1,f
   855  0759  0AF6               	incf	___awdiv@divisor,f
   856  075A  1903               	skipnz
   857  075B  0AF7               	incf	___awdiv@divisor+1,f
   858  075C  01A1               	clrf	___awdiv@sign
   859  075D  0AA1               	incf	___awdiv@sign,f
   860  075E                     l801:	
   861  075E  1FF9               	btfss	___awdiv@dividend+1,7
   862  075F  2F69               	goto	l807
   863  0760  09F8               	comf	___awdiv@dividend,f
   864  0761  09F9               	comf	___awdiv@dividend+1,f
   865  0762  0AF8               	incf	___awdiv@dividend,f
   866  0763  1903               	skipnz
   867  0764  0AF9               	incf	___awdiv@dividend+1,f
   868  0765  3001               	movlw	1
   869  0766  00FA               	movwf	??___awdiv
   870  0767  087A               	movf	??___awdiv,w
   871  0768  06A1               	xorwf	___awdiv@sign,f
   872  0769                     l807:	
   873  0769  01A2               	clrf	___awdiv@quotient
   874  076A  01A3               	clrf	___awdiv@quotient+1
   875  076B  0877               	movf	___awdiv@divisor+1,w
   876  076C  0476               	iorwf	___awdiv@divisor,w
   877  076D  1903               	skipnz
   878  076E  2F98               	goto	l829
   879  076F  01A0               	clrf	___awdiv@counter
   880  0770  0AA0               	incf	___awdiv@counter,f
   881  0771                     l817:	
   882  0771  1BF7               	btfsc	___awdiv@divisor+1,7
   883  0772  2F7D               	goto	l819
   884  0773  3001               	movlw	1
   885  0774                     u735:	
   886  0774  35F6               	lslf	___awdiv@divisor,f
   887  0775  0DF7               	rlf	___awdiv@divisor+1,f
   888  0776  0B89               	decfsz	9,f
   889  0777  2F74               	goto	u735
   890  0778  3001               	movlw	1
   891  0779  00FA               	movwf	??___awdiv
   892  077A  087A               	movf	??___awdiv,w
   893  077B  07A0               	addwf	___awdiv@counter,f
   894  077C  2F71               	goto	l817
   895  077D                     l819:	
   896  077D  3001               	movlw	1
   897  077E                     u755:	
   898  077E  35A2               	lslf	___awdiv@quotient,f
   899  077F  0DA3               	rlf	___awdiv@quotient+1,f
   900  0780  0B89               	decfsz	9,f
   901  0781  2F7E               	goto	u755
   902  0782  0877               	movf	___awdiv@divisor+1,w
   903  0783  0279               	subwf	___awdiv@dividend+1,w
   904  0784  1D03               	skipz
   905  0785  2F88               	goto	u765
   906  0786  0876               	movf	___awdiv@divisor,w
   907  0787  0278               	subwf	___awdiv@dividend,w
   908  0788                     u765:	
   909  0788  1C03               	skipc
   910  0789  2F8F               	goto	l825
   911  078A  0876               	movf	___awdiv@divisor,w
   912  078B  02F8               	subwf	___awdiv@dividend,f
   913  078C  0877               	movf	___awdiv@divisor+1,w
   914  078D  3BF9               	subwfb	___awdiv@dividend+1,f
   915  078E  1422               	bsf	___awdiv@quotient,0
   916  078F                     l825:	
   917  078F  3001               	movlw	1
   918  0790                     u775:	
   919  0790  36F7               	lsrf	___awdiv@divisor+1,f
   920  0791  0CF6               	rrf	___awdiv@divisor,f
   921  0792  0B89               	decfsz	9,f
   922  0793  2F90               	goto	u775
   923  0794  3001               	movlw	1
   924  0795  02A0               	subwf	___awdiv@counter,f
   925  0796  1D03               	btfss	3,2
   926  0797  2F7D               	goto	l819
   927  0798                     l829:	
   928  0798  0821               	movf	___awdiv@sign,w
   929  0799  1903               	btfsc	3,2
   930  079A  2FA0               	goto	l833
   931  079B  09A2               	comf	___awdiv@quotient,f
   932  079C  09A3               	comf	___awdiv@quotient+1,f
   933  079D  0AA2               	incf	___awdiv@quotient,f
   934  079E  1903               	skipnz
   935  079F  0AA3               	incf	___awdiv@quotient+1,f
   936  07A0                     l833:	
   937  07A0  0823               	movf	___awdiv@quotient+1,w
   938  07A1  01F7               	clrf	?___awdiv+1
   939  07A2  07F7               	addwf	?___awdiv+1,f
   940  07A3  0822               	movf	___awdiv@quotient,w
   941  07A4  01F6               	clrf	?___awdiv
   942  07A5  07F6               	addwf	?___awdiv,f
   943  07A6  0008               	return
   944  07A7                     __end_of___awdiv:	
   945                           
   946                           	psect	text3
   947  07A7                     __ptext3:	
   948 ;; *************** function _writeMiBus *****************
   949 ;; Defined at:
   950 ;;		line 55 in file "miBus.c"
   951 ;; Parameters:    Size  Location     Type
   952 ;;  data            1    wreg     unsigned char 
   953 ;; Auto vars:     Size  Location     Type
   954 ;;  data            1    2[COMMON] unsigned char 
   955 ;;  i               1    3[COMMON] unsigned char 
   956 ;; Return value:  Size  Location     Type
   957 ;;		None               void
   958 ;; Registers used:
   959 ;;		wreg, status,2, status,0
   960 ;; Tracked objects:
   961 ;;		On entry : 0/0
   962 ;;		On exit  : 0/0
   963 ;;		Unchanged: 0/0
   964 ;; Data sizes:     COMMON   BANK0   BANK1
   965 ;;      Params:         0       0       0
   966 ;;      Locals:         2       0       0
   967 ;;      Temps:          2       0       0
   968 ;;      Totals:         4       0       0
   969 ;;Total ram usage:        4 bytes
   970 ;; Hardware stack levels used:    1
   971 ;; This function calls:
   972 ;;		Nothing
   973 ;; This function is called by:
   974 ;;		_main
   975 ;; This function uses a non-reentrant model
   976 ;;
   977                           
   978                           
   979                           ;psect for function _writeMiBus
   980  07A7                     _writeMiBus:	
   981                           
   982                           ;incstack = 0
   983                           ; Regs used in _writeMiBus: [wreg+status,2+status,0]
   984                           ;writeMiBus@data stored from wreg
   985  07A7  00F2               	movwf	writeMiBus@data
   986                           
   987                           ;miBus.c: 56: unsigned char i = 0;
   988  07A8  01F3               	clrf	writeMiBus@i
   989                           
   990                           ;miBus.c: 58: for (i = 0; i < 16; i++) {
   991  07A9  01F3               	clrf	writeMiBus@i
   992  07AA  3010               	movlw	16
   993  07AB  0273               	subwf	writeMiBus@i,w
   994  07AC  1803               	btfsc	3,0
   995  07AD  2FC1               	goto	l765
   996  07AE                     l92:	
   997                           ;miBus.c: 59: while (PORTCbits.RC0 == 1);
   998                           
   999  07AE  0020               	movlb	0	; select bank0
  1000  07AF  180E               	btfsc	14,0	;volatile
  1001  07B0  2FAE               	goto	l92
  1002                           
  1003                           ;miBus.c: 60: _delay((unsigned long)((10)*(16000000/4000000.0)));
  1004  07B1  300D               	movlw	13
  1005  07B2  00F0               	movwf	??_writeMiBus
  1006  07B3                     u827:	
  1007  07B3  0BF0               	decfsz	??_writeMiBus,f
  1008  07B4  2FB3               	goto	u827
  1009                           
  1010                           ;miBus.c: 61: PORTCbits.RC2 = 0;
  1011  07B5  0020               	movlb	0	; select bank0
  1012  07B6  110E               	bcf	14,2	;volatile
  1013  07B7                     l95:	
  1014                           ;miBus.c: 62: while (PORTCbits.RC0 == 0);
  1015                           
  1016  07B7  1C0E               	btfss	14,0	;volatile
  1017  07B8  2FB7               	goto	l95
  1018  07B9  3001               	movlw	1
  1019  07BA  00F0               	movwf	??_writeMiBus
  1020  07BB  0870               	movf	??_writeMiBus,w
  1021  07BC  07F3               	addwf	writeMiBus@i,f
  1022  07BD  3010               	movlw	16
  1023  07BE  0273               	subwf	writeMiBus@i,w
  1024  07BF  1C03               	skipc
  1025  07C0  2FAE               	goto	l92
  1026  07C1                     l765:	
  1027                           
  1028                           ;miBus.c: 63: }
  1029                           ;miBus.c: 65: for (i = 0; i < 8; i++) {
  1030  07C1  01F3               	clrf	writeMiBus@i
  1031  07C2  3008               	movlw	8
  1032  07C3  0273               	subwf	writeMiBus@i,w
  1033  07C4  1803               	btfsc	3,0
  1034  07C5  2FE9               	goto	l779
  1035  07C6                     l100:	
  1036                           ;miBus.c: 66: while (PORTCbits.RC0 == 1);
  1037                           
  1038  07C6  0020               	movlb	0	; select bank0
  1039  07C7  180E               	btfsc	14,0	;volatile
  1040  07C8  2FC6               	goto	l100
  1041                           
  1042                           ;miBus.c: 67: _delay((unsigned long)((10)*(16000000/4000000.0)));
  1043  07C9  300D               	movlw	13
  1044  07CA  00F0               	movwf	??_writeMiBus
  1045  07CB                     u837:	
  1046  07CB  0BF0               	decfsz	??_writeMiBus,f
  1047  07CC  2FCB               	goto	u837
  1048                           
  1049                           ;miBus.c: 68: PORTCbits.RC2 = (((data) >> (i)) & 1);
  1050  07CD  0872               	movf	writeMiBus@data,w
  1051  07CE  00F0               	movwf	??_writeMiBus
  1052  07CF  0A73               	incf	writeMiBus@i,w
  1053  07D0  2FD2               	goto	u634
  1054  07D1                     u635:	
  1055  07D1  36F0               	lsrf	??_writeMiBus,f
  1056  07D2                     u634:	
  1057  07D2  0B89               	decfsz	9,f
  1058  07D3  2FD1               	goto	u635
  1059  07D4  0870               	movf	??_writeMiBus,w
  1060  07D5  3901               	andlw	1
  1061  07D6  00F1               	movwf	??_writeMiBus+1
  1062  07D7  0DF1               	rlf	??_writeMiBus+1,f
  1063  07D8  0DF1               	rlf	??_writeMiBus+1,f
  1064  07D9  0020               	movlb	0	; select bank0
  1065  07DA  080E               	movf	14,w	;volatile
  1066  07DB  0671               	xorwf	??_writeMiBus+1,w
  1067  07DC  39FB               	andlw	-5
  1068  07DD  0671               	xorwf	??_writeMiBus+1,w
  1069  07DE  008E               	movwf	14	;volatile
  1070  07DF                     l103:	
  1071                           ;miBus.c: 69: while (PORTCbits.RC0 == 0);
  1072                           
  1073  07DF  1C0E               	btfss	14,0	;volatile
  1074  07E0  2FDF               	goto	l103
  1075  07E1  3001               	movlw	1
  1076  07E2  00F0               	movwf	??_writeMiBus
  1077  07E3  0870               	movf	??_writeMiBus,w
  1078  07E4  07F3               	addwf	writeMiBus@i,f
  1079  07E5  3008               	movlw	8
  1080  07E6  0273               	subwf	writeMiBus@i,w
  1081  07E7  1C03               	skipc
  1082  07E8  2FC6               	goto	l100
  1083  07E9                     l779:	
  1084                           
  1085                           ;miBus.c: 70: }
  1086                           ;miBus.c: 72: for (i = 0; i < 2; i++) {
  1087  07E9  01F3               	clrf	writeMiBus@i
  1088  07EA                     L2:	
  1089  07EA  3002               	movlw	2
  1090  07EB  0273               	subwf	writeMiBus@i,w
  1091  07EC  1803               	btfsc	3,0
  1092  07ED  0008               	return
  1093  07EE                     l108:	
  1094                           ;miBus.c: 73: while (PORTCbits.RC0 == 1);
  1095                           
  1096  07EE  0020               	movlb	0	; select bank0
  1097  07EF  180E               	btfsc	14,0	;volatile
  1098  07F0  2FEE               	goto	l108
  1099                           
  1100                           ;miBus.c: 74: _delay((unsigned long)((10)*(16000000/4000000.0)));
  1101  07F1  300D               	movlw	13
  1102  07F2  00F0               	movwf	??_writeMiBus
  1103  07F3                     u847:	
  1104  07F3  0BF0               	decfsz	??_writeMiBus,f
  1105  07F4  2FF3               	goto	u847
  1106                           
  1107                           ;miBus.c: 75: PORTCbits.RC2 = 1;
  1108  07F5  0020               	movlb	0	; select bank0
  1109  07F6  150E               	bsf	14,2	;volatile
  1110  07F7                     l111:	
  1111                           ;miBus.c: 76: while (PORTCbits.RC0 == 0);
  1112                           
  1113  07F7  1C0E               	btfss	14,0	;volatile
  1114  07F8  2FF7               	goto	l111
  1115  07F9  3001               	movlw	1
  1116  07FA  00F0               	movwf	??_writeMiBus
  1117  07FB  0870               	movf	??_writeMiBus,w
  1118  07FC  07F3               	addwf	writeMiBus@i,f
  1119  07FD  2FEA               	goto	L2
  1120  07FE                     __end_of_writeMiBus:	
  1121                           
  1122                           	psect	text4
  1123  06CF                     __ptext4:	
  1124 ;; *************** function _readMiBus *****************
  1125 ;; Defined at:
  1126 ;;		line 21 in file "miBus.c"
  1127 ;; Parameters:    Size  Location     Type
  1128 ;;		None
  1129 ;; Auto vars:     Size  Location     Type
  1130 ;;  i               1    3[COMMON] unsigned char 
  1131 ;;  data            1    2[COMMON] unsigned char 
  1132 ;; Return value:  Size  Location     Type
  1133 ;;                  1    wreg      unsigned char 
  1134 ;; Registers used:
  1135 ;;		wreg, status,2, status,0
  1136 ;; Tracked objects:
  1137 ;;		On entry : 0/0
  1138 ;;		On exit  : 0/0
  1139 ;;		Unchanged: 0/0
  1140 ;; Data sizes:     COMMON   BANK0   BANK1
  1141 ;;      Params:         0       0       0
  1142 ;;      Locals:         2       0       0
  1143 ;;      Temps:          2       0       0
  1144 ;;      Totals:         4       0       0
  1145 ;;Total ram usage:        4 bytes
  1146 ;; Hardware stack levels used:    1
  1147 ;; This function calls:
  1148 ;;		Nothing
  1149 ;; This function is called by:
  1150 ;;		_main
  1151 ;; This function uses a non-reentrant model
  1152 ;;
  1153                           
  1154                           
  1155                           ;psect for function _readMiBus
  1156  06CF                     _readMiBus:	
  1157                           
  1158                           ;miBus.c: 22: unsigned char i = 0;
  1159                           
  1160                           ;incstack = 0
  1161                           ; Regs used in _readMiBus: [wreg+status,2+status,0]
  1162  06CF  01F3               	clrf	readMiBus@i
  1163                           
  1164                           ;miBus.c: 23: unsigned char data = 0b00000000;
  1165  06D0  01F2               	clrf	readMiBus@data
  1166  06D1                     l727:	
  1167                           ;miBus.c: 26: do {
  1168                           
  1169                           
  1170                           ;miBus.c: 36: i = 0;
  1171  06D1  01F3               	clrf	readMiBus@i
  1172  06D2                     l729:	
  1173  06D2  3010               	movlw	16
  1174  06D3  0273               	subwf	readMiBus@i,w
  1175  06D4  1803               	btfsc	3,0
  1176  06D5  2EE7               	goto	l731
  1177  06D6                     l68:	
  1178                           ;miBus.c: 30: while (PORTCbits.RC0 == 1);
  1179                           
  1180                           ;miBus.c: 29: while (i < 16) {
  1181                           
  1182                           ;miBus.c: 28: i = 0;
  1183                           
  1184  06D6  0020               	movlb	0	; select bank0
  1185  06D7  180E               	btfsc	14,0	;volatile
  1186  06D8  2ED6               	goto	l68
  1187  06D9                     l71:	
  1188                           ;miBus.c: 31: while (PORTCbits.RC0 == 0);
  1189                           
  1190  06D9  1C0E               	btfss	14,0	;volatile
  1191  06DA  2ED9               	goto	l71
  1192                           
  1193                           ;miBus.c: 32: _delay((unsigned long)((10)*(16000000/4000000.0)));
  1194  06DB  300D               	movlw	13
  1195  06DC  00F0               	movwf	??_readMiBus
  1196  06DD                     u857:	
  1197  06DD  0BF0               	decfsz	??_readMiBus,f
  1198  06DE  2EDD               	goto	u857
  1199                           
  1200                           ;miBus.c: 33: if (PORTCbits.RC1 == 0) {
  1201  06DF  0020               	movlb	0	; select bank0
  1202  06E0  188E               	btfsc	14,1	;volatile
  1203  06E1  2ED1               	goto	l727
  1204                           
  1205                           ;miBus.c: 34: i++;
  1206  06E2  3001               	movlw	1
  1207  06E3  00F0               	movwf	??_readMiBus
  1208  06E4  0870               	movf	??_readMiBus,w
  1209  06E5  07F3               	addwf	readMiBus@i,f
  1210                           
  1211                           ;miBus.c: 35: } else {
  1212  06E6  2ED2               	goto	l729
  1213  06E7                     l731:	
  1214                           
  1215                           ;miBus.c: 37: }
  1216                           ;miBus.c: 38: }
  1217                           ;miBus.c: 41: for (i = 0; i < 8; i++) {
  1218  06E7  01F3               	clrf	readMiBus@i
  1219  06E8  3008               	movlw	8
  1220  06E9  0273               	subwf	readMiBus@i,w
  1221  06EA  1803               	btfsc	3,0
  1222  06EB  2F0B               	goto	l745
  1223  06EC                     l79:	
  1224                           ;miBus.c: 42: while (PORTCbits.RC0 == 1);
  1225                           
  1226  06EC  0020               	movlb	0	; select bank0
  1227  06ED  180E               	btfsc	14,0	;volatile
  1228  06EE  2EEC               	goto	l79
  1229  06EF                     l82:	
  1230                           ;miBus.c: 43: while (PORTCbits.RC0 == 0);
  1231                           
  1232  06EF  1C0E               	btfss	14,0	;volatile
  1233  06F0  2EEF               	goto	l82
  1234                           
  1235                           ;miBus.c: 44: _delay((unsigned long)((10)*(16000000/4000000.0)));
  1236  06F1  300D               	movlw	13
  1237  06F2  00F0               	movwf	??_readMiBus
  1238  06F3                     u867:	
  1239  06F3  0BF0               	decfsz	??_readMiBus,f
  1240  06F4  2EF3               	goto	u867
  1241                           
  1242                           ;miBus.c: 45: if (PORTCbits.RC1 == 1) {
  1243  06F5  0020               	movlb	0	; select bank0
  1244  06F6  1C8E               	btfss	14,1	;volatile
  1245  06F7  2F03               	goto	l85
  1246                           
  1247                           ;miBus.c: 46: data |= (1 << (i));
  1248  06F8  3001               	movlw	1
  1249  06F9  00F0               	movwf	??_readMiBus
  1250  06FA  0A73               	incf	readMiBus@i,w
  1251  06FB  2EFD               	goto	u544
  1252  06FC                     u545:	
  1253  06FC  35F0               	lslf	??_readMiBus,f
  1254  06FD                     u544:	
  1255  06FD  0B89               	decfsz	9,f
  1256  06FE  2EFC               	goto	u545
  1257  06FF  0870               	movf	??_readMiBus,w
  1258  0700  00F1               	movwf	??_readMiBus+1
  1259  0701  0871               	movf	??_readMiBus+1,w
  1260  0702  04F2               	iorwf	readMiBus@data,f
  1261  0703                     l85:	
  1262  0703  3001               	movlw	1
  1263  0704  00F0               	movwf	??_readMiBus
  1264  0705  0870               	movf	??_readMiBus,w
  1265  0706  07F3               	addwf	readMiBus@i,f
  1266  0707  3008               	movlw	8
  1267  0708  0273               	subwf	readMiBus@i,w
  1268  0709  1C03               	skipc
  1269  070A  2EEC               	goto	l79
  1270  070B                     l745:	
  1271                           
  1272                           ;miBus.c: 47: }
  1273                           ;miBus.c: 48: }
  1274                           ;miBus.c: 50: } while (data == 0b00000000);
  1275  070B  0872               	movf	readMiBus@data,w
  1276  070C  1903               	btfsc	3,2
  1277  070D  2ED1               	goto	l727
  1278                           
  1279                           ;miBus.c: 52: return data;
  1280  070E  0872               	movf	readMiBus@data,w
  1281  070F  0008               	return
  1282  0710                     __end_of_readMiBus:	
  1283                           
  1284                           	psect	text5
  1285  0689                     __ptext5:	
  1286 ;; *************** function _initMiBus *****************
  1287 ;; Defined at:
  1288 ;;		line 10 in file "miBus.c"
  1289 ;; Parameters:    Size  Location     Type
  1290 ;;		None
  1291 ;; Auto vars:     Size  Location     Type
  1292 ;;		None
  1293 ;; Return value:  Size  Location     Type
  1294 ;;		None               void
  1295 ;; Registers used:
  1296 ;;		None
  1297 ;; Tracked objects:
  1298 ;;		On entry : 0/0
  1299 ;;		On exit  : 0/0
  1300 ;;		Unchanged: 0/0
  1301 ;; Data sizes:     COMMON   BANK0   BANK1
  1302 ;;      Params:         0       0       0
  1303 ;;      Locals:         0       0       0
  1304 ;;      Temps:          0       0       0
  1305 ;;      Totals:         0       0       0
  1306 ;;Total ram usage:        0 bytes
  1307 ;; Hardware stack levels used:    1
  1308 ;; This function calls:
  1309 ;;		Nothing
  1310 ;; This function is called by:
  1311 ;;		_main
  1312 ;; This function uses a non-reentrant model
  1313 ;;
  1314                           
  1315                           
  1316                           ;psect for function _initMiBus
  1317  0689                     _initMiBus:	
  1318                           
  1319                           ;miBus.c: 11: TRISCbits.TRISC0 = 1;
  1320                           
  1321                           ;incstack = 0
  1322                           ; Regs used in _initMiBus: []
  1323  0689  0021               	movlb	1	; select bank1
  1324  068A  140E               	bsf	14,0	;volatile
  1325                           
  1326                           ;miBus.c: 12: ANSELCbits.ANSC0 = 0;
  1327  068B  0023               	movlb	3	; select bank3
  1328  068C  100E               	bcf	14,0	;volatile
  1329                           
  1330                           ;miBus.c: 13: TRISCbits.TRISC1 = 1;
  1331  068D  0021               	movlb	1	; select bank1
  1332  068E  148E               	bsf	14,1	;volatile
  1333                           
  1334                           ;miBus.c: 14: ANSELCbits.ANSC1 = 0;
  1335  068F  0023               	movlb	3	; select bank3
  1336  0690  108E               	bcf	14,1	;volatile
  1337                           
  1338                           ;miBus.c: 15: TRISCbits.TRISC2 = 0;
  1339  0691  0021               	movlb	1	; select bank1
  1340  0692  110E               	bcf	14,2	;volatile
  1341                           
  1342                           ;miBus.c: 16: ANSELCbits.ANSC2 = 0;
  1343  0693  0023               	movlb	3	; select bank3
  1344  0694  110E               	bcf	14,2	;volatile
  1345                           
  1346                           ;miBus.c: 17: TRISAbits.TRISA1 = 1;
  1347  0695  0021               	movlb	1	; select bank1
  1348  0696  148C               	bsf	12,1	;volatile
  1349                           
  1350                           ;miBus.c: 18: ANSELAbits.ANSA1 = 0;
  1351  0697  0023               	movlb	3	; select bank3
  1352  0698  108C               	bcf	12,1	;volatile
  1353  0699  0008               	return
  1354  069A                     __end_of_initMiBus:	
  1355                           
  1356                           	psect	text6
  1357  069A                     __ptext6:	
  1358 ;; *************** function _readADC *****************
  1359 ;; Defined at:
  1360 ;;		line 18 in file "adc.c"
  1361 ;; Parameters:    Size  Location     Type
  1362 ;;		None
  1363 ;; Auto vars:     Size  Location     Type
  1364 ;;  value           2    2[COMMON] unsigned int 
  1365 ;; Return value:  Size  Location     Type
  1366 ;;                  1    wreg      unsigned char 
  1367 ;; Registers used:
  1368 ;;		wreg, status,2, status,0
  1369 ;; Tracked objects:
  1370 ;;		On entry : 0/0
  1371 ;;		On exit  : 0/0
  1372 ;;		Unchanged: 0/0
  1373 ;; Data sizes:     COMMON   BANK0   BANK1
  1374 ;;      Params:         0       0       0
  1375 ;;      Locals:         2       0       0
  1376 ;;      Temps:          2       0       0
  1377 ;;      Totals:         4       0       0
  1378 ;;Total ram usage:        4 bytes
  1379 ;; Hardware stack levels used:    1
  1380 ;; This function calls:
  1381 ;;		Nothing
  1382 ;; This function is called by:
  1383 ;;		_main
  1384 ;; This function uses a non-reentrant model
  1385 ;;
  1386                           
  1387                           
  1388                           ;psect for function _readADC
  1389  069A                     _readADC:	
  1390                           
  1391                           ;adc.c: 19: unsigned int value = 0;
  1392                           
  1393                           ;incstack = 0
  1394                           ; Regs used in _readADC: [wreg+status,2+status,0]
  1395  069A  01F2               	clrf	readADC@value
  1396  069B  01F3               	clrf	readADC@value+1
  1397                           
  1398                           ;adc.c: 21: ADCON0bits.ADON=1;
  1399  069C  0021               	movlb	1	; select bank1
  1400  069D  141D               	bsf	29,0	;volatile
  1401                           
  1402                           ;adc.c: 22: ADCON0bits.GO_nDONE=1;
  1403  069E  149D               	bsf	29,1	;volatile
  1404  069F                     l18:	
  1405                           ;adc.c: 23: while(ADCON0bits.GO_nDONE);
  1406                           
  1407  069F  189D               	btfsc	29,1	;volatile
  1408  06A0  2E9F               	goto	l18
  1409                           
  1410                           ;adc.c: 24: ADCON0bits.ADON=0;
  1411  06A1  101D               	bcf	29,0	;volatile
  1412                           
  1413                           ;adc.c: 26: value = ADRES;
  1414  06A2  081C               	movf	28,w	;volatile
  1415  06A3  01F3               	clrf	readADC@value+1
  1416  06A4  07F3               	addwf	readADC@value+1,f
  1417  06A5  081B               	movf	27,w	;volatile
  1418  06A6  01F2               	clrf	readADC@value
  1419  06A7  07F2               	addwf	readADC@value,f
  1420                           
  1421                           ;adc.c: 29: return (value >> 2);
  1422  06A8  0873               	movf	readADC@value+1,w
  1423  06A9  00F1               	movwf	??_readADC+1
  1424  06AA  0872               	movf	readADC@value,w
  1425  06AB  00F0               	movwf	??_readADC
  1426  06AC  36F1               	lsrf	??_readADC+1,f
  1427  06AD  0CF0               	rrf	??_readADC,f
  1428  06AE  36F1               	lsrf	??_readADC+1,f
  1429  06AF  0CF0               	rrf	??_readADC,f
  1430  06B0  0870               	movf	??_readADC,w
  1431  06B1  0008               	return
  1432  06B2                     __end_of_readADC:	
  1433                           
  1434                           	psect	text7
  1435  067F                     __ptext7:	
  1436 ;; *************** function _initADC *****************
  1437 ;; Defined at:
  1438 ;;		line 10 in file "adc.c"
  1439 ;; Parameters:    Size  Location     Type
  1440 ;;		None
  1441 ;; Auto vars:     Size  Location     Type
  1442 ;;		None
  1443 ;; Return value:  Size  Location     Type
  1444 ;;		None               void
  1445 ;; Registers used:
  1446 ;;		wreg
  1447 ;; Tracked objects:
  1448 ;;		On entry : 0/0
  1449 ;;		On exit  : 0/0
  1450 ;;		Unchanged: 0/0
  1451 ;; Data sizes:     COMMON   BANK0   BANK1
  1452 ;;      Params:         0       0       0
  1453 ;;      Locals:         0       0       0
  1454 ;;      Temps:          0       0       0
  1455 ;;      Totals:         0       0       0
  1456 ;;Total ram usage:        0 bytes
  1457 ;; Hardware stack levels used:    1
  1458 ;; This function calls:
  1459 ;;		Nothing
  1460 ;; This function is called by:
  1461 ;;		_main
  1462 ;; This function uses a non-reentrant model
  1463 ;;
  1464                           
  1465                           
  1466                           ;psect for function _initADC
  1467  067F                     _initADC:	
  1468                           
  1469                           ;adc.c: 11: TRISAbits.TRISA4 = 1;
  1470                           
  1471                           ;incstack = 0
  1472                           ; Regs used in _initADC: [wreg]
  1473  067F  0021               	movlb	1	; select bank1
  1474  0680  160C               	bsf	12,4	;volatile
  1475                           
  1476                           ;adc.c: 12: ANSELAbits.ANSA4 = 1;
  1477  0681  0023               	movlb	3	; select bank3
  1478  0682  160C               	bsf	12,4	;volatile
  1479                           
  1480                           ;adc.c: 14: ADCON0 = 0b00001100;
  1481  0683  300C               	movlw	12
  1482  0684  0021               	movlb	1	; select bank1
  1483  0685  009D               	movwf	29	;volatile
  1484                           
  1485                           ;adc.c: 15: ADCON1 = 0b10100000;
  1486  0686  30A0               	movlw	160
  1487  0687  009E               	movwf	30	;volatile
  1488  0688  0008               	return
  1489  0689                     __end_of_initADC:	
  1490  007E                     btemp	set	126	;btemp
  1491  007E                     wtemp0	set	126


Data Sizes:
    Strings     0
    Constant    0
    Data        0
    BSS         0
    Persistent  0
    Stack       0

Auto Spaces:
    Space          Size  Autos    Used
    COMMON           14     13      13
    BANK0            80      9       9
    BANK1            32      0       0

Pointer List with Targets:

    ?___wmul	unsigned int  size(1) Largest target is 0

    ?___awdiv	int  size(1) Largest target is 0


Critical Paths under _main in COMMON

    _main->___awdiv
    ___awdiv->___wmul

Critical Paths under _main in BANK0

    _main->___awdiv

Critical Paths under _main in BANK1

    None.

Call Graph Tables:

 ---------------------------------------------------------------------------------
 (Depth) Function   	        Calls       Base Space   Used Autos Params    Refs
 ---------------------------------------------------------------------------------
 (0) _main                                                 7     7      0     832
                                             11 COMMON     2     2      0
                                              4 BANK0      5     5      0
                            _initADC
                            _readADC
                          _initMiBus
                          _readMiBus
                         _writeMiBus
                            ___awdiv
                             ___wmul
 ---------------------------------------------------------------------------------
 (1) ___wmul                                               6     2      4      92
                                              0 COMMON     6     2      4
 ---------------------------------------------------------------------------------
 (1) ___awdiv                                              9     5      4     300
                                              6 COMMON     5     1      4
                                              0 BANK0      4     4      0
                             ___wmul (ARG)
 ---------------------------------------------------------------------------------
 (1) _writeMiBus                                           4     4      0     183
                                              0 COMMON     4     4      0
 ---------------------------------------------------------------------------------
 (1) _readMiBus                                            4     4      0     140
                                              0 COMMON     4     4      0
 ---------------------------------------------------------------------------------
 (1) _initMiBus                                            0     0      0       0
 ---------------------------------------------------------------------------------
 (1) _readADC                                              4     4      0      24
                                              0 COMMON     4     4      0
 ---------------------------------------------------------------------------------
 (1) _initADC                                              0     0      0       0
 ---------------------------------------------------------------------------------
 Estimated maximum stack depth 1
 ---------------------------------------------------------------------------------

 Call Graph Graphs:

 _main (ROOT)
   _initADC
   _readADC
   _initMiBus
   _readMiBus
   _writeMiBus
   ___awdiv
     ___wmul (ARG)
   ___wmul

 Address spaces:
Name               Size   Autos  Total    Cost      Usage
BIGRAM              70      0       0       0        0.0%
NULL                 0      0       0       0        0.0%
CODE                 0      0       0       0        0.0%
BITCOMMON            E      0       0       1        0.0%
BITSFR0              0      0       0       1        0.0%
SFR0                 0      0       0       1        0.0%
COMMON               E      D       D       2       92.9%
BITSFR1              0      0       0       2        0.0%
SFR1                 0      0       0       2        0.0%
BITSFR2              0      0       0       3        0.0%
SFR2                 0      0       0       3        0.0%
STACK                0      0       1       3        0.0%
BITSFR3              0      0       0       4        0.0%
SFR3                 0      0       0       4        0.0%
ABS                  0      0       0       4        0.0%
BITBANK0            50      0       0       5        0.0%
BITSFR4              0      0       0       5        0.0%
SFR4                 0      0       0       5        0.0%
BANK0               50      9       9       6       11.2%
BITSFR5              0      0       0       6        0.0%
SFR5                 0      0       0       6        0.0%
BITBANK1            20      0       0       7        0.0%
BITSFR6              0      0       0       7        0.0%
SFR6                 0      0       0       7        0.0%
BANK1               20      0       0       8        0.0%
BITSFR7              0      0       0       8        0.0%
SFR7                 0      0       0       8        0.0%
BITSFR8              0      0       0       9        0.0%
SFR8                 0      0       0       9        0.0%
DATA                 0      0       0       9        0.0%
BITSFR9              0      0       0      10        0.0%
SFR9                 0      0       0      10        0.0%
BITSFR10             0      0       0      11        0.0%
SFR10                0      0       0      11        0.0%
BITSFR11             0      0       0      12        0.0%
SFR11                0      0       0      12        0.0%
BITSFR12             0      0       0      13        0.0%
SFR12                0      0       0      13        0.0%
BITSFR13             0      0       0      14        0.0%
SFR13                0      0       0      14        0.0%
BITSFR14             0      0       0      15        0.0%
SFR14                0      0       0      15        0.0%
BITSFR15             0      0       0      16        0.0%
SFR15                0      0       0      16        0.0%
BITSFR16             0      0       0      17        0.0%
SFR16                0      0       0      17        0.0%
BITSFR17             0      0       0      18        0.0%
SFR17                0      0       0      18        0.0%
BITSFR18             0      0       0      19        0.0%
SFR18                0      0       0      19        0.0%
BITSFR19             0      0       0      20        0.0%
SFR19                0      0       0      20        0.0%
BITSFR20             0      0       0      21        0.0%
SFR20                0      0       0      21        0.0%
BITSFR21             0      0       0      22        0.0%
SFR21                0      0       0      22        0.0%
BITSFR22             0      0       0      23        0.0%
SFR22                0      0       0      23        0.0%
BITSFR23             0      0       0      24        0.0%
SFR23                0      0       0      24        0.0%
BITSFR24             0      0       0      25        0.0%
SFR24                0      0       0      25        0.0%
BITSFR25             0      0       0      26        0.0%
SFR25                0      0       0      26        0.0%
BITSFR26             0      0       0      27        0.0%
SFR26                0      0       0      27        0.0%
BITSFR27             0      0       0      28        0.0%
SFR27                0      0       0      28        0.0%
BITSFR28             0      0       0      29        0.0%
SFR28                0      0       0      29        0.0%
BITSFR29             0      0       0      30        0.0%
SFR29                0      0       0      30        0.0%
BITSFR30             0      0       0      31        0.0%
SFR30                0      0       0      31        0.0%
BITSFR31             0      0       0      32        0.0%
SFR31                0      0       0      32        0.0%


Microchip Technology PIC Macro Assembler V1.21 build 54009 
Symbol Table                                                                                   Sun Oct 20 04:40:43 2013

            __CFG_CP$OFF 0000                       l18 069F                       l71 06D9  
                     l82 06EF                       l68 06D6                       l92 07AE  
                     l85 0703                       l79 06EC                       l95 07B7  
           ___awdiv@sign 0021      ___wmul@multiplicand 0072                      l100 07C6  
                    l111 07F7                      l103 07DF                      l108 07EE  
                    l801 075E                      l731 06E7                      l467 06BA  
                    l709 06B4                      l727 06D1                      l807 0769  
                    l745 070B                      l729 06D2                      l833 07A0  
                    l825 078F                      l817 0771                      l819 077D  
                    l851 0721                      l765 07C1                      l829 0798  
                    l779 07E9                      l859 071F                      u435 06BB  
                    u445 06C0                      u544 06FD                      u545 06FC  
                    u634 07D2                      u635 07D1                      u735 0774  
                    u817 0716                      u827 07B3                      u755 077E  
                    u837 07CB                      u765 0788                      u847 07F3  
                    u775 0790                      u857 06DD                      u867 06F3  
                    wreg 0009                     _main 0710                     btemp 007E  
                   start 0001                    ?_main 0070          __end_of___awdiv 07A7  
                  _ADRES 009B            __CFG_WDTE$OFF 0000          ___awdiv@divisor 0076  
        ___awdiv@counter 0020          __end_of_initADC 0689          __end_of_readADC 06B2  
                  status 0003                    wtemp0 007E           __CFG_MCLRE$OFF 0000  
        __initialization 07FE             __end_of_main 0753                   ??_main 0024  
                 _ADCON0 009D                   _ADCON1 009E         ___awdiv@dividend 0078  
                 ___wmul 06B2                ??___awdiv 007A             readADC@value 0072  
       ___awdiv@quotient 0022                ??_initADC 0070                ??_readADC 0070  
__end_of__initialization 07FE           __pcstackCOMMON 0070       __size_of_initMiBus 0011  
     __size_of_readMiBus 0041               __pmaintext 0710                  ?___wmul 0070  
                ___awdiv 0753          __size_of___wmul 001D                  __ptext0 0000  
                __ptext1 06B2                  __ptext2 0753                  __ptext3 07A7  
                __ptext4 06CF                  __ptext5 0689                  __ptext6 069A  
                __ptext7 067F        __end_of_initMiBus 069A        __end_of_readMiBus 0710  
                _initADC 067F                  _readADC 069A     end_of_initialization 07FE  
              _PORTAbits 000C                _PORTCbits 000E         __CFG_FOSC$INTOSC 0000  
              _TRISAbits 008C                _TRISCbits 008E               _writeMiBus 07A7  
         __end_of___wmul 06CF      start_initialization 07FE               readMiBus@i 0073  
               ??___wmul 0074            __pcstackBANK0 0020                 ?___awdiv 0076  
            ?_writeMiBus 0070                 ?_initADC 0070                 ?_readADC 0070  
              _initMiBus 0689                _readMiBus 06CF            readMiBus@data 0072  
         ___wmul@product 0074              writeMiBus@i 0073               _ADCON0bits 009D  
      ___wmul@multiplier 0070                main@value 007B               ?_initMiBus 0070  
             ?_readMiBus 0070      __size_of_writeMiBus 0057         __size_of___awdiv 0054  
             _ANSELAbits 018C               _ANSELCbits 018E         __size_of_initADC 000A  
       __size_of_readADC 0018            __size_of_main 0043           writeMiBus@data 0072  
               main@data 007C              ??_initMiBus 0070              ??_readMiBus 0070  
             _OSCCONbits 0099             ??_writeMiBus 0070       __end_of_writeMiBus 07FE  
