:040000000128FE2FA6
:100CFE0021000C1623000C160C3021009D00A03094
:100D0E009E00080021000E1423000E1021008E14E8
:100D1E0023008E1021000E1123000E1121008C14C1
:100D2E0023008C100800F201F30121001D149D1404
:100D3E009D189F2E1D101C08F301F3071B08F201CE
:100D4E00F2077308F1007208F000F136F00CF1367C
:100D5E00F00C70080800F301F201F3011030730279
:100D6E000318CA2E20000E18B92E0E1CBC2E0D30E4
:100D7E00F000F00BC02E20008E18B42E0130F000C3
:100D8E007008F307B52EF301083073020318EE2E28
:100D9E0020000E18CF2E0E1CD22E0D30F000F00BB0
:100DAE00D62E20008E1CE62E0130F000730AE02EA7
:100DBE00F035890BDF2E7008F1007108F204013056
:100DCE00F0007008F30708307302031CCF2E720870
:100DDE000319B42E72080800F200F301F30110306B
:100DEE00730203180D2F20000E18FA2E0D30F0008E
:100DFE00F00BFF2E20000E110E1C032F0130F00001
:100E0E007008F30710307302031CFA2EF30108303A
:100E1E0073020318352F20000E18122F0D30F0001C
:100E2E00F00B172F7208F000730A1E2FF036890B85
:100E3E001D2F70080139F100F10DF10D20000E0883
:100E4E007106FB3971068E000E1C2B2F0130F0003F
:100E5E007008F30708307302031C122FF3010230DF
:100E6E0073020318080020000E183A2F0D30F00000
:100E7E00F00B3F2F20000E150E1C432F0130F000FB
:100E8E007008F307362F7830210099040D30F800E2
:100E9E00F80B4F2F89267F2621008C16FB01FC01B3
:100EAE00FD01FA01F02F7B08013A0319962F9A26BD
:100EBE00FF3A013E023EF8007808FC00FD017C0876
:100ECE007D0203187A2FFF30F3262030F9002930E7
:100EDE00F800F80B702FF90B702F752F0130F800FA
:100EEE007808FD07662F9A26FF3A013E023EF8006B
:100EFE007808FC00FD017C087D020318F02F0130FC
:100F0E00F3262030F9002930F800F80B8C2FF90B5E
:100F1E008C2F912F0130F8007808FD07822F7B0867
:100F2E00F326F02F0230F8007808FD007D08FF3A16
:100F3E000319C72F7D08F3267D08F3267D08F326B7
:100F4E009A26FF3A013EFF3EF8007808FC00FA01AF
:100F5E007C087A020318BF2FC730F8000000F80B88
:100F6E00B52FB92F00000130F8007808FA07AF2F1F
:100F7E000130F8007808FD077D08FF3A031DA12F08
:100F8E00FF30F8007808FD0003307D02031CF02FBF
:100F9E007D08F3267D08F3267D08F3269A26FF3A70
:100FAE00013EFF3EF8007808FC00FA017C087A0248
:100FBE000318ED2FC730F8000000F80BE32FE72FD2
:100FCE0000000130F8007808FA07DD2F0130FD022D
:100FDE00CB2FB226F8007808FB0020008C1E5A2F6B
:100FEE007B08013A031D992F7B08F326F02F200072
:020FFE004A2F78
:020000040001F9
:02000E00A4FF4D
:00000001FF
