:040000000128FE2FA6
:100CEE0021000C1623000C160C3021009D00A030A4
:100CFE009E00080021000E1423000E1021008E14F9
:100D0E0023008E1021000E1123000E1121008C14D1
:100D1E0023008C100800F201F30121001D149D1414
:100D2E009D18972E1D101C08F301F3071B08F201E6
:100D3E00F2077308F1007208F000F136F00CF1368C
:100D4E00F00C70080800F401F501701CB22E720848
:100D5E00F4077308F53D0130F235F30D890BB32E10
:100D6E000130F136F00C890BB82E71087004031D9A
:100D7E00AC2E7508F101F1077408F001F0070800B8
:100D8E00F301F201F301103073020318DF2E20007D
:100D9E000E18CE2E0E1CD12E0D30F000F00BD52ECF
:100DAE0020008E18C92E0130F0007008F307CA2EED
:100DBE00F301083073020318032F20000E18E42EDF
:100DCE000E1CE72E0D30F000F00BEB2E20008E1CCB
:100DDE00FB2E0130F000730AF52EF035890BF42E40
:100DEE007008F1007108F2040130F0007008F3078A
:100DFE0008307302031CE42E72080319C92E720800
:100E0E0008007830210099040D302000A400A40BB6
:100E1E000E2F8126772621008C16FC01FB01C7269A
:100E2E002000A4002408FC0092262000A400240820
:100E3E00FB008C1A452FFF30F6000030F7007C08BF
:100E4E00FF3EF000FF3003180030F1007B08A400D5
:100E5E00A5012408F2002508F300AA267108F9015D
:100E6E00F9077008F801F807532776082000A60046
:100E7E007708A700260AA80028084C2F7C087B02BA
:100E8E00031C4E2FFF30A4002408FC00502FFC0141
:100E9E00FC0A7C08A727162F2000A101F71F5E2F42
:100EAE00F609F709F60A0319F70AA101A10AF91FB3
:100EBE00692FF809F909F80A0319F90A0130FA003D
:100ECE007A08A106A201A301770876040319982FC8
:100EDE00A001A00AF71B7D2F0130F635F70D890B07
:100EEE00742F0130FA007A08A007712F0130A23555
:100EFE00A30D890B7E2F77087902031D882F7608A4
:100F0E007802031C8F2F7608F8027708F93B22141B
:100F1E000130F736F60C890B902F0130A002031D1D
:100F2E007D2F21080319A02FA209A309A20A0319D4
:100F3E00A30A2308F701F7072208F601F6070800AF
:100F4E00F200F301F301103073020318C12F2000D9
:100F5E000E18AE2F0D30F000F00BB32F20000E1137
:100F6E000E1CB72F0130F0007008F307103073021B
:100F7E00031CAE2FF301083073020318E92F200073
:100F8E000E18C62F0D30F000F00BCB2F7208F000AC
:100F9E00730AD22FF036890BD12F70080139F10068
:100FAE00F10DF10D20000E087106FB3971068E0051
:100FBE000E1CDF2F0130F0007008F30708307302AB
:100FCE00031CC62FF3010230730203180800200021
:100FDE000E18EE2F0D30F000F00BF32F20000E1533
:100FEE000E1CF72F0130F0007008F307EA2F2000D7
:020FFE00082FBA
:020000040001F9
:02000E00A4FF4D
:00000001FF
