:1000000064002500030A6400050A090C0600410C7F
:100010002700C00C0200050446052605030C33002A
:10002000F302100A66071A0A2604100CFE092605B8
:100030000A0C250A2604100CFE092605010CFE09EF
:100040002604070CFE092605020CFE09090C060011
:10005000430C270027062A0AA00C88000306360A4C
:10006000010C2700080C06006604120A6605120A35
:10007000310072007200110292000306000846056A
:10008000100C3000F002420A00004604100C300050
:10009000F002480A0000010C3F001F02F2013B0A77
:0201FC00380ABF
:021FFE00E8FFFA
:00000001FF
