

Microchip Technology PIC LITE Macro Assembler V1.21 build 54009 
                                                                                               Sun Oct 20 03:52:12 2013

Microchip Technology Omniscient Code Generator (Lite mode) build 54009
     1                           	processor	10F220
     2                           	opt	pw 120
     3                           	opt	lm
     4                           	psect	text0,local,class=CODE,merge=1,delta=2
     5                           	psect	cinit,global,class=ENTRY,merge=1,delta=2
     6                           	psect	cstackBANK0,global,class=BANK0,space=1,delta=1
     7                           	psect	maintext,global,class=CODE,split=1,delta=2
     8                           	psect	text1,local,class=CODE,merge=1,delta=2
     9                           	psect	jmp_tab,global,class=ENTRY,delta=2
    10                           	dabs	1,0x1C,4
    11  0000                     	;# 
    12  0001                     	;# 
    13  0002                     	;# 
    14  0003                     	;# 
    15  0004                     	;# 
    16  0005                     	;# 
    17  0006                     	;# 
    18  0007                     	;# 
    19  0008                     	;# 
    20  0007                     _ADCON0	set	7
    21  0007                     _ADCON0bits	set	7
    22  0008                     _ADRES	set	8
    23  0000                     _OPTION	set	0
    24  0006                     _TRISGPIO	set	6
    25  0028                     _FOSC4	set	40
    26  0031                     _GP1	set	49
    27  0032                     _GP2	set	50
    28  0033                     _GP3	set	51
    29                           
    30                           	psect	text0
    31  000                     __ptext0:	
    32                           
    33                           ;psect for function _pulse
    34                           ; #config settings
    35  0000                     
    36                           	psect	cinit
    37  003                     start_initialization:	
    38  003                     __initialization:	
    39  003                     end_of_initialization:	
    40                           ;End of C runtime variable initialization code
    41                           
    42  003                     __end_of__initialization:	
    43  003  064                	clrf	4
    44  004  A05                	ljmp	_main	;jump to C main() function
    45                           
    46                           	psect	cstackBANK0
    47  010                     __pcstackBANK0:	
    48  010                     ?_pulse:	
    49  010                     ??_pulse:	
    50                           ; 0 bytes @ 0x0
    51                           
    52  010                     ?_main:	
    53                           ; 0 bytes @ 0x0
    54                           
    55                           
    56                           ; 2 bytes @ 0x0
    57  010                     	ds	1
    58  011                     pulse@number:	
    59                           
    60                           ; 1 bytes @ 0x1
    61  011                     	ds	1
    62  012                     pulse@i:	
    63                           
    64                           ; 1 bytes @ 0x2
    65  012                     	ds	1
    66  013                     ??_main:	
    67                           
    68                           ; 0 bytes @ 0x3
    69  013                     	ds	1
    70                           
    71                           	psect	maintext
    72  005                     __pmaintext:	
    73 ;;
    74 ;;Main: autosize = 0, tempsize = 1, incstack = 0, save=0
    75 ;;
    76 ;; *************** function _main *****************
    77 ;; Defined at:
    78 ;;		line 48 in file "main.c"
    79 ;; Parameters:    Size  Location     Type
    80 ;;		None
    81 ;; Auto vars:     Size  Location     Type
    82 ;;		None
    83 ;; Return value:  Size  Location     Type
    84 ;;                  2   28[BANK0 ] int 
    85 ;; Registers used:
    86 ;;		wreg, fsr0l, fsr0h, status,2, status,0, btemp+3, pclath, cstack
    87 ;; Tracked objects:
    88 ;;		On entry : 17F/0
    89 ;;		On exit  : 0/0
    90 ;;		Unchanged: 0/0
    91 ;; Data sizes:     COMMON   BANK0
    92 ;;      Params:         0       0
    93 ;;      Locals:         0       0
    94 ;;      Temps:          0       1
    95 ;;      Totals:         0       1
    96 ;;Total ram usage:        1 bytes
    97 ;; Hardware stack levels required when called:    1
    98 ;; This function calls:
    99 ;;		_pulse
   100 ;; This function is called by:
   101 ;;		Startup code after reset
   102 ;; This function uses a non-reentrant model
   103 ;;
   104                           
   105                           
   106                           ;psect for function _main
   107  005                     _main:	
   108                           
   109                           ;main.c: 51: TRISGPIO = 0b00001001;
   110                           
   111                           ;incstack = 0
   112                           ; Regs used in _main: [wreg-fsr0h+status,2+status,0+btemp+3+pclath+cstack]
   113  005  C09                	movlw	9
   114  006  006                	tris	6
   115                           
   116                           ;main.c: 54: ADCON0 = 0b01000001;
   117  007  C41                	movlw	65
   118  008  027                	movwf	7	;volatile
   119                           
   120                           ;main.c: 55: OPTION = 0b11000000;
   121  009  CC0                	movlw	192
   122  00A  002                	option
   123                           
   124                           ;main.c: 56: FOSC4 = 0;
   125  00B  405                	bcf	5,0	;volatile
   126                           
   127                           ;main.c: 58: GP2 = 1;
   128  00C  546                	bsf	6,2	;volatile
   129                           
   130                           ;main.c: 59: GP1 = 1;
   131  00D  526                	bsf	6,1	;volatile
   132                           
   133                           ;main.c: 61: _delay((unsigned long)((10)*(4000000/4000000.0)));
   134  00E  C03                	movlw	3
   135  00F  033                	movwf	??_main
   136  010                     u97:	
   137  010  2F3                	decfsz	??_main,f
   138  011  A10                	goto	u97
   139  012                     l29:	
   140                           ;main.c: 63: while(1) {
   141                           
   142                           
   143                           ;main.c: 66: if (GP3 == 1) {
   144  012  766                	btfss	6,3	;volatile
   145  013  A1A                	goto	l502
   146                           
   147                           ;main.c: 69: GP1 = 0;
   148  014  426                	bcf	6,1	;volatile
   149                           
   150                           ;main.c: 70: pulse(16);
   151  015  C10                	movlw	16
   152  016  9FE                	fcall	entry__pulse
   153                           
   154                           ;main.c: 73: GP1 = 1;
   155  017  526                	bsf	6,1	;volatile
   156                           
   157                           ;main.c: 74: pulse(10);
   158  018  C0A                	movlw	10
   159  019  A25                	goto	L1
   160  01A                     l502:	
   161                           ;main.c: 77: } else {
   162                           
   163                           
   164                           ;main.c: 80: GP1 = 0;
   165  01A  426                	bcf	6,1	;volatile
   166                           
   167                           ;main.c: 81: pulse(16);
   168  01B  C10                	movlw	16
   169  01C  9FE                	fcall	entry__pulse
   170                           
   171                           ;main.c: 84: GP1 = 1;
   172  01D  526                	bsf	6,1	;volatile
   173                           
   174                           ;main.c: 85: pulse(1);
   175  01E  C01                	movlw	1
   176  01F  9FE                	fcall	entry__pulse
   177                           
   178                           ;main.c: 86: GP1 = 0;
   179  020  426                	bcf	6,1	;volatile
   180                           
   181                           ;main.c: 87: pulse(7);
   182  021  C07                	movlw	7
   183  022  9FE                	fcall	entry__pulse
   184                           
   185                           ;main.c: 90: GP1 = 1;
   186  023  526                	bsf	6,1	;volatile
   187                           
   188                           ;main.c: 91: pulse(2);
   189  024  C02                	movlw	2
   190  025                     L1:	
   191  025  9FE                	fcall	entry__pulse
   192                           
   193                           ;main.c: 93: }
   194                           ;main.c: 96: TRISGPIO = 0b00001001;
   195  026  C09                	movlw	9
   196  027  006                	tris	6
   197                           
   198                           ;main.c: 97: ADCON0 = 0b01000011;
   199  028  C43                	movlw	67
   200  029  027                	movwf	7	;volatile
   201  02A                     l518:	
   202                           ;main.c: 98: while(ADCON0bits.nDONE);
   203                           
   204  02A  627                	btfsc	7,1	;volatile
   205  02B  A2A                	goto	l518
   206                           
   207                           ;main.c: 99: if(ADRES < 160){
   208  02C  CA0                	movlw	160
   209  02D  088                	subwf	8,w	;volatile
   210  02E  603                	skipnc
   211  02F  A36                	goto	l526
   212                           
   213                           ;main.c: 100: ADCON0 = 0b00000001;
   214  030  C01                	movlw	1
   215  031  027                	movwf	7	;volatile
   216                           
   217                           ;main.c: 101: TRISGPIO = 0b00001000;
   218  032  C08                	movlw	8
   219  033  006                	tris	6
   220                           
   221                           ;main.c: 102: GP3 = 0;
   222  034  466                	bcf	6,3	;volatile
   223                           
   224                           ;main.c: 103: } else {
   225  035  A12                	goto	l29
   226  036                     l526:	
   227                           
   228                           ;main.c: 104: GP3 = 1;
   229  036  566                	bsf	6,3	;volatile
   230  037  A12                	goto	l29
   231  038                     __end_of_main:	
   232                           
   233                           	psect	text1
   234  038                     __ptext1:	
   235 ;; *************** function _pulse *****************
   236 ;; Defined at:
   237 ;;		line 37 in file "main.c"
   238 ;; Parameters:    Size  Location     Type
   239 ;;  number          1    wreg     unsigned char 
   240 ;; Auto vars:     Size  Location     Type
   241 ;;  number          1    1[BANK0 ] unsigned char 
   242 ;;  i               1    2[BANK0 ] unsigned char 
   243 ;; Return value:  Size  Location     Type
   244 ;;		None               void
   245 ;; Registers used:
   246 ;;		wreg, fsr0l, fsr0h, status,2, status,0, btemp+3
   247 ;; Tracked objects:
   248 ;;		On entry : 0/0
   249 ;;		On exit  : 0/0
   250 ;;		Unchanged: 0/0
   251 ;; Data sizes:     COMMON   BANK0
   252 ;;      Params:         0       0
   253 ;;      Locals:         0       2
   254 ;;      Temps:          0       1
   255 ;;      Totals:         0       3
   256 ;;Total ram usage:        3 bytes
   257 ;; Hardware stack levels used:    1
   258 ;; This function calls:
   259 ;;		Nothing
   260 ;; This function is called by:
   261 ;;		_main
   262 ;; This function uses a non-reentrant model
   263 ;;
   264                           
   265                           
   266                           ;psect for function _pulse
   267  038                     _pulse:	
   268                           
   269                           ;pulse@number stored from wreg
   270  038  031                	movwf	pulse@number
   271                           
   272                           ;main.c: 38: unsigned char i = 0;
   273  039  072                	clrf	pulse@i
   274                           
   275                           ;main.c: 39: for (i = 0; i < number; i++) {
   276  03A  072                	clrf	pulse@i
   277  03B                     l480:	
   278  03B  211                	movf	pulse@number,w
   279  03C  092                	subwf	pulse@i,w
   280  03D  603                	btfsc	3,0
   281  03E  800                	retlw	0
   282                           
   283                           ;main.c: 40: GP2 = 1;
   284  03F  546                	bsf	6,2	;volatile
   285                           
   286                           ;main.c: 41: _delay((unsigned long)((50)*(4000000/4000000.0)));
   287  040  C10                	movlw	16
   288  041  030                	movwf	??_pulse
   289  042                     u107:	
   290  042  2F0                	decfsz	??_pulse,f
   291  043  A42                	goto	u107
   292  044  000                	nop
   293                           
   294                           ;main.c: 42: GP2 = 0;
   295  045  446                	bcf	6,2	;volatile
   296                           
   297                           ;main.c: 43: _delay((unsigned long)((50)*(4000000/4000000.0)));
   298  046  C10                	movlw	16
   299  047  030                	movwf	??_pulse
   300  048                     u117:	
   301  048  2F0                	decfsz	??_pulse,f
   302  049  A48                	goto	u117
   303  04A  000                	nop
   304  04B  C01                	movlw	1
   305  04C  03F                	movwf	31
   306  04D  21F                	movf	31,w
   307  04E  1F2                	addwf	pulse@i,f
   308  04F  A3B                	goto	l480
   309  050                     __end_of_pulse:	
   310  001C                     btemp	set	28	;btemp
   311  001C                     wtemp0	set	28
   312  001E                     wtemp1	set	30
   313  0020                     wtemp2	set	32
   314  0022                     wtemp3	set	34
   315  001C                     ttemp0	set	28
   316  001F                     ttemp1	set	31
   317  001C                     ltemp0	set	28
   318  0020                     ltemp1	set	32
   319                           
   320                           	psect	jmp_tab
   321  0FE                     __pjmp_tab:	
   322                           ;incstack = 0
   323                           ; Regs used in _pulse: [wreg-fsr0h+status,2+status,0+btemp+3]
   324                           
   325  0FE                     entry__pulse:	
   326  0FE  A38                	ljmp	_pulse


Data Sizes:
    Strings     0
    Constant    0
    Data        0
    BSS         0
    Persistent  0
    Stack       0

Auto Spaces:
    Space          Size  Autos    Used
    COMMON            0      0       0
    BANK0            14      4       4

Pointer List with Targets:

    None.

Critical Paths under _main in COMMON

    None.

Critical Paths under _main in BANK0

    _main->_pulse

Call Graph Tables:

 ---------------------------------------------------------------------------------
 (Depth) Function   	        Calls       Base Space   Used Autos Params    Refs
 ---------------------------------------------------------------------------------
 (0) _main                                                 1     1      0      47
                                              3 BANK0      1     1      0
                              _pulse
 ---------------------------------------------------------------------------------
 (1) _pulse                                                3     3      0      47
                                              0 BANK0      3     3      0
 ---------------------------------------------------------------------------------
 Estimated maximum stack depth 1
 ---------------------------------------------------------------------------------

 Call Graph Graphs:

 _main (ROOT)
   _pulse

 Address spaces:
Name               Size   Autos  Total    Cost      Usage
STACK                0      0       1       0        0.0%
NULL                 0      0       0       0        0.0%
CODE                 0      0       0       0        0.0%
BITSFR0              0      0       0       1        0.0%
SFR0                 0      0       0       1        0.0%
DATA                 0      0       0       1        0.0%
BITCOMMON            0      0       0       2        0.0%
BITBANK0             E      0       0       3        0.0%
COMMON               0      0       0       4        0.0%
BANK0                E      4       4       5       28.6%
ABS                  0      0       0       6        0.0%


Microchip Technology PIC Macro Assembler V1.21 build 54009 
Symbol Table                                                                                   Sun Oct 20 03:52:12 2013

            __CFG_CP$OFF 0000                       l29 0012                       u97 0010  
                     fsr 0004                      l502 001A                      l526 0036  
                    l518 002A                      l480 003B                      _GP1 0031  
                    _GP2 0032                      _GP3 0033                      u107 0042  
                    u117 0048             __CFG_MCPU$ON 0000                     _main 0005  
                   btemp 001C                     start 0002                    ?_main 0010  
                  _ADRES 0008            __CFG_WDTE$OFF 0000                    _FOSC4 0028  
                  _pulse 0038                    ltemp0 001C                    ltemp1 0020  
                  ttemp0 001C                    ttemp1 001F                    wtemp0 001C  
                  wtemp1 001E                    wtemp2 0020                    wtemp3 0022  
         __CFG_MCLRE$OFF 0000          __initialization 0003             __end_of_main 0038  
                 ??_main 0013                   _ADCON0 0007                   ?_pulse 0010  
                 _OPTION 0000              entry__pulse 00FE                   pulse@i 0012  
__end_of__initialization 0003            __end_of_pulse 0050                  ??_pulse 0010  
             __pmaintext 0005                  __ptext0 0000                  __ptext1 0038  
   end_of_initialization 0003      start_initialization 0003         __CFG_IOSCFS$4MHZ 0000  
            pulse@number 0011            __pcstackBANK0 0010                __pjmp_tab 00FE  
         __size_of_pulse 0018                 _TRISGPIO 0006               _ADCON0bits 0007  
          __size_of_main 0033  
